{
  "_format": "hh-sol-artifact-1",
  "contractName": "DecentralizedFreelanceMarket",
  "sourceName": "contracts/DecentralizedFreelanceMarket.sol",
  "abi": [
    {
      "anonymous": false,
      "inputs": [
        {
          "indexed": true,
          "internalType": "uint256",
          "name": "disputeId",
          "type": "uint256"
        },
        {
          "indexed": true,
          "internalType": "uint256",
          "name": "projectId",
          "type": "uint256"
        }
      ],
      "name": "DisputeRaised",
      "type": "event"
    },
    {
      "anonymous": false,
      "inputs": [
        {
          "indexed": true,
          "internalType": "uint256",
          "name": "disputeId",
          "type": "uint256"
        },
        {
          "indexed": false,
          "internalType": "bool",
          "name": "clientWins",
          "type": "bool"
        }
      ],
      "name": "DisputeResolved",
      "type": "event"
    },
    {
      "anonymous": false,
      "inputs": [
        {
          "indexed": true,
          "internalType": "uint256",
          "name": "disputeId",
          "type": "uint256"
        },
        {
          "indexed": true,
          "internalType": "address",
          "name": "voter",
          "type": "address"
        },
        {
          "indexed": false,
          "internalType": "bool",
          "name": "vote",
          "type": "bool"
        }
      ],
      "name": "DisputeVoted",
      "type": "event"
    },
    {
      "anonymous": false,
      "inputs": [
        {
          "indexed": true,
          "internalType": "uint256",
          "name": "projectId",
          "type": "uint256"
        },
        {
          "indexed": true,
          "internalType": "address",
          "name": "recipient",
          "type": "address"
        },
        {
          "indexed": false,
          "internalType": "uint256",
          "name": "amount",
          "type": "uint256"
        }
      ],
      "name": "FundsTransferredFromEscrow",
      "type": "event"
    },
    {
      "anonymous": false,
      "inputs": [
        {
          "indexed": true,
          "internalType": "uint256",
          "name": "projectId",
          "type": "uint256"
        },
        {
          "indexed": false,
          "internalType": "uint256",
          "name": "amount",
          "type": "uint256"
        }
      ],
      "name": "FundsTransferredToEscrow",
      "type": "event"
    },
    {
      "anonymous": false,
      "inputs": [
        {
          "indexed": true,
          "internalType": "address",
          "name": "wallet",
          "type": "address"
        }
      ],
      "name": "ProfileUpdated",
      "type": "event"
    },
    {
      "anonymous": false,
      "inputs": [
        {
          "indexed": true,
          "internalType": "uint256",
          "name": "projectId",
          "type": "uint256"
        },
        {
          "indexed": true,
          "internalType": "address",
          "name": "freelancer",
          "type": "address"
        }
      ],
      "name": "ProjectAccepted",
      "type": "event"
    },
    {
      "anonymous": false,
      "inputs": [
        {
          "indexed": true,
          "internalType": "uint256",
          "name": "projectId",
          "type": "uint256"
        },
        {
          "indexed": true,
          "internalType": "address",
          "name": "freelancer",
          "type": "address"
        }
      ],
      "name": "ProjectApplied",
      "type": "event"
    },
    {
      "anonymous": false,
      "inputs": [
        {
          "indexed": true,
          "internalType": "uint256",
          "name": "projectId",
          "type": "uint256"
        }
      ],
      "name": "ProjectApproved",
      "type": "event"
    },
    {
      "anonymous": false,
      "inputs": [
        {
          "indexed": true,
          "internalType": "uint256",
          "name": "projectId",
          "type": "uint256"
        }
      ],
      "name": "ProjectCompleted",
      "type": "event"
    },
    {
      "anonymous": false,
      "inputs": [
        {
          "indexed": true,
          "internalType": "uint256",
          "name": "projectId",
          "type": "uint256"
        },
        {
          "indexed": true,
          "internalType": "address",
          "name": "client",
          "type": "address"
        }
      ],
      "name": "ProjectCreated",
      "type": "event"
    },
    {
      "anonymous": false,
      "inputs": [
        {
          "indexed": true,
          "internalType": "address",
          "name": "wallet",
          "type": "address"
        },
        {
          "indexed": false,
          "internalType": "enum DecentralizedFreelanceMarket.UserType",
          "name": "userType",
          "type": "uint8"
        }
      ],
      "name": "UserRegistered",
      "type": "event"
    },
    {
      "inputs": [
        {
          "internalType": "uint256",
          "name": "",
          "type": "uint256"
        },
        {
          "internalType": "uint256",
          "name": "",
          "type": "uint256"
        }
      ],
      "name": "Applied",
      "outputs": [
        {
          "internalType": "address",
          "name": "",
          "type": "address"
        }
      ],
      "stateMutability": "view",
      "type": "function"
    },
    {
      "inputs": [],
      "name": "DISPUTE_LIFETIME",
      "outputs": [
        {
          "internalType": "uint256",
          "name": "",
          "type": "uint256"
        }
      ],
      "stateMutability": "view",
      "type": "function"
    },
    {
      "inputs": [
        {
          "internalType": "uint256",
          "name": "projectId",
          "type": "uint256"
        },
        {
          "internalType": "address",
          "name": "_freelancer",
          "type": "address"
        }
      ],
      "name": "acceptProjectRequest",
      "outputs": [],
      "stateMutability": "nonpayable",
      "type": "function"
    },
    {
      "inputs": [
        {
          "internalType": "uint256",
          "name": "projectId",
          "type": "uint256"
        }
      ],
      "name": "applyProject",
      "outputs": [],
      "stateMutability": "nonpayable",
      "type": "function"
    },
    {
      "inputs": [
        {
          "internalType": "uint256",
          "name": "disputeId",
          "type": "uint256"
        }
      ],
      "name": "checkDisputeExpiry",
      "outputs": [],
      "stateMutability": "nonpayable",
      "type": "function"
    },
    {
      "inputs": [
        {
          "internalType": "address",
          "name": "",
          "type": "address"
        },
        {
          "internalType": "uint256",
          "name": "",
          "type": "uint256"
        }
      ],
      "name": "clientProjects",
      "outputs": [
        {
          "internalType": "uint256",
          "name": "",
          "type": "uint256"
        }
      ],
      "stateMutability": "view",
      "type": "function"
    },
    {
      "inputs": [
        {
          "internalType": "string",
          "name": "title",
          "type": "string"
        },
        {
          "internalType": "string",
          "name": "description",
          "type": "string"
        },
        {
          "internalType": "uint256",
          "name": "budget",
          "type": "uint256"
        }
      ],
      "name": "createProject",
      "outputs": [],
      "stateMutability": "nonpayable",
      "type": "function"
    },
    {
      "inputs": [],
      "name": "disputeCounter",
      "outputs": [
        {
          "internalType": "uint256",
          "name": "",
          "type": "uint256"
        }
      ],
      "stateMutability": "view",
      "type": "function"
    },
    {
      "inputs": [
        {
          "internalType": "uint256",
          "name": "",
          "type": "uint256"
        }
      ],
      "name": "disputes",
      "outputs": [
        {
          "internalType": "uint256",
          "name": "projectId",
          "type": "uint256"
        },
        {
          "internalType": "address",
          "name": "raisedBy",
          "type": "address"
        },
        {
          "internalType": "address",
          "name": "raisedAgainst",
          "type": "address"
        },
        {
          "internalType": "string",
          "name": "explanation",
          "type": "string"
        },
        {
          "internalType": "uint256",
          "name": "votesFor",
          "type": "uint256"
        },
        {
          "internalType": "uint256",
          "name": "votesAgainst",
          "type": "uint256"
        },
        {
          "internalType": "bool",
          "name": "resolved",
          "type": "bool"
        },
        {
          "internalType": "uint256",
          "name": "creationTime",
          "type": "uint256"
        }
      ],
      "stateMutability": "view",
      "type": "function"
    },
    {
      "inputs": [
        {
          "internalType": "address",
          "name": "",
          "type": "address"
        },
        {
          "internalType": "uint256",
          "name": "",
          "type": "uint256"
        }
      ],
      "name": "freelancerProjects",
      "outputs": [
        {
          "internalType": "uint256",
          "name": "",
          "type": "uint256"
        }
      ],
      "stateMutability": "view",
      "type": "function"
    },
    {
      "inputs": [
        {
          "internalType": "enum DecentralizedFreelanceMarket.ProjectStatus",
          "name": "status",
          "type": "uint8"
        }
      ],
      "name": "getClientProjectsByStatus",
      "outputs": [
        {
          "components": [
            {
              "internalType": "uint256",
              "name": "id",
              "type": "uint256"
            },
            {
              "internalType": "address",
              "name": "client",
              "type": "address"
            },
            {
              "internalType": "string",
              "name": "title",
              "type": "string"
            },
            {
              "internalType": "string",
              "name": "description",
              "type": "string"
            },
            {
              "internalType": "uint256",
              "name": "budget",
              "type": "uint256"
            },
            {
              "internalType": "enum DecentralizedFreelanceMarket.ProjectStatus",
              "name": "status",
              "type": "uint8"
            },
            {
              "internalType": "string",
              "name": "demo",
              "type": "string"
            },
            {
              "internalType": "address",
              "name": "freelancer",
              "type": "address"
            }
          ],
          "internalType": "struct DecentralizedFreelanceMarket.Project[]",
          "name": "",
          "type": "tuple[]"
        }
      ],
      "stateMutability": "view",
      "type": "function"
    },
    {
      "inputs": [
        {
          "internalType": "uint256",
          "name": "disputeId",
          "type": "uint256"
        }
      ],
      "name": "getDisputeTimeRemaining",
      "outputs": [
        {
          "internalType": "uint256",
          "name": "",
          "type": "uint256"
        }
      ],
      "stateMutability": "view",
      "type": "function"
    },
    {
      "inputs": [
        {
          "internalType": "uint256",
          "name": "projectId",
          "type": "uint256"
        }
      ],
      "name": "getFreelancerApplied",
      "outputs": [
        {
          "internalType": "address[]",
          "name": "addresses",
          "type": "address[]"
        }
      ],
      "stateMutability": "view",
      "type": "function"
    },
    {
      "inputs": [
        {
          "internalType": "enum DecentralizedFreelanceMarket.ProjectStatus",
          "name": "status",
          "type": "uint8"
        }
      ],
      "name": "getFreelancerProjectsByStatus",
      "outputs": [
        {
          "components": [
            {
              "internalType": "uint256",
              "name": "id",
              "type": "uint256"
            },
            {
              "internalType": "address",
              "name": "client",
              "type": "address"
            },
            {
              "internalType": "string",
              "name": "title",
              "type": "string"
            },
            {
              "internalType": "string",
              "name": "description",
              "type": "string"
            },
            {
              "internalType": "uint256",
              "name": "budget",
              "type": "uint256"
            },
            {
              "internalType": "enum DecentralizedFreelanceMarket.ProjectStatus",
              "name": "status",
              "type": "uint8"
            },
            {
              "internalType": "string",
              "name": "demo",
              "type": "string"
            },
            {
              "internalType": "address",
              "name": "freelancer",
              "type": "address"
            }
          ],
          "internalType": "struct DecentralizedFreelanceMarket.Project[]",
          "name": "",
          "type": "tuple[]"
        }
      ],
      "stateMutability": "view",
      "type": "function"
    },
    {
      "inputs": [
        {
          "internalType": "address",
          "name": "account",
          "type": "address"
        }
      ],
      "name": "getProfile",
      "outputs": [
        {
          "internalType": "string",
          "name": "name",
          "type": "string"
        },
        {
          "internalType": "string",
          "name": "description",
          "type": "string"
        },
        {
          "internalType": "string",
          "name": "email",
          "type": "string"
        },
        {
          "internalType": "string[]",
          "name": "skills",
          "type": "string[]"
        },
        {
          "internalType": "string[]",
          "name": "documents",
          "type": "string[]"
        },
        {
          "internalType": "uint256",
          "name": "credits",
          "type": "uint256"
        },
        {
          "internalType": "uint256[]",
          "name": "reviews",
          "type": "uint256[]"
        },
        {
          "internalType": "enum DecentralizedFreelanceMarket.UserType",
          "name": "userType",
          "type": "uint8"
        }
      ],
      "stateMutability": "view",
      "type": "function"
    },
    {
      "inputs": [
        {
          "internalType": "uint256",
          "name": "",
          "type": "uint256"
        },
        {
          "internalType": "address",
          "name": "",
          "type": "address"
        }
      ],
      "name": "hasVoted",
      "outputs": [
        {
          "internalType": "bool",
          "name": "",
          "type": "bool"
        }
      ],
      "stateMutability": "view",
      "type": "function"
    },
    {
      "inputs": [
        {
          "internalType": "uint256",
          "name": "projectId",
          "type": "uint256"
        },
        {
          "internalType": "uint256",
          "name": "rating",
          "type": "uint256"
        }
      ],
      "name": "projectApprove",
      "outputs": [],
      "stateMutability": "nonpayable",
      "type": "function"
    },
    {
      "inputs": [],
      "name": "projectCounter",
      "outputs": [
        {
          "internalType": "uint256",
          "name": "",
          "type": "uint256"
        }
      ],
      "stateMutability": "view",
      "type": "function"
    },
    {
      "inputs": [
        {
          "internalType": "uint256",
          "name": "projectId",
          "type": "uint256"
        },
        {
          "internalType": "string",
          "name": "cid",
          "type": "string"
        }
      ],
      "name": "projectDone",
      "outputs": [],
      "stateMutability": "nonpayable",
      "type": "function"
    },
    {
      "inputs": [
        {
          "internalType": "uint256",
          "name": "",
          "type": "uint256"
        }
      ],
      "name": "projects",
      "outputs": [
        {
          "internalType": "uint256",
          "name": "id",
          "type": "uint256"
        },
        {
          "internalType": "address",
          "name": "client",
          "type": "address"
        },
        {
          "internalType": "string",
          "name": "title",
          "type": "string"
        },
        {
          "internalType": "string",
          "name": "description",
          "type": "string"
        },
        {
          "internalType": "uint256",
          "name": "budget",
          "type": "uint256"
        },
        {
          "internalType": "enum DecentralizedFreelanceMarket.ProjectStatus",
          "name": "status",
          "type": "uint8"
        },
        {
          "internalType": "string",
          "name": "demo",
          "type": "string"
        },
        {
          "internalType": "address",
          "name": "freelancer",
          "type": "address"
        }
      ],
      "stateMutability": "view",
      "type": "function"
    },
    {
      "inputs": [
        {
          "internalType": "uint256",
          "name": "projectId",
          "type": "uint256"
        },
        {
          "internalType": "string",
          "name": "explanation",
          "type": "string"
        }
      ],
      "name": "raiseDispute",
      "outputs": [],
      "stateMutability": "nonpayable",
      "type": "function"
    },
    {
      "inputs": [
        {
          "internalType": "enum DecentralizedFreelanceMarket.UserType",
          "name": "userType",
          "type": "uint8"
        },
        {
          "internalType": "string",
          "name": "name",
          "type": "string"
        },
        {
          "internalType": "string",
          "name": "email",
          "type": "string"
        }
      ],
      "name": "registerUser",
      "outputs": [],
      "stateMutability": "nonpayable",
      "type": "function"
    },
    {
      "inputs": [
        {
          "internalType": "uint256",
          "name": "disputeId",
          "type": "uint256"
        }
      ],
      "name": "resolveDispute",
      "outputs": [],
      "stateMutability": "nonpayable",
      "type": "function"
    },
    {
      "inputs": [
        {
          "internalType": "uint256",
          "name": "projectId",
          "type": "uint256"
        }
      ],
      "name": "transferFromEscrow",
      "outputs": [],
      "stateMutability": "nonpayable",
      "type": "function"
    },
    {
      "inputs": [
        {
          "internalType": "uint256",
          "name": "projectId",
          "type": "uint256"
        }
      ],
      "name": "transferToEscrow",
      "outputs": [],
      "stateMutability": "payable",
      "type": "function"
    },
    {
      "inputs": [
        {
          "internalType": "string",
          "name": "name",
          "type": "string"
        },
        {
          "internalType": "string",
          "name": "description",
          "type": "string"
        },
        {
          "internalType": "string",
          "name": "email",
          "type": "string"
        },
        {
          "internalType": "string[]",
          "name": "skills",
          "type": "string[]"
        },
        {
          "internalType": "string[]",
          "name": "documents",
          "type": "string[]"
        }
      ],
      "name": "updateProfile",
      "outputs": [],
      "stateMutability": "nonpayable",
      "type": "function"
    },
    {
      "inputs": [
        {
          "internalType": "address",
          "name": "",
          "type": "address"
        }
      ],
      "name": "users",
      "outputs": [
        {
          "internalType": "address",
          "name": "wallet",
          "type": "address"
        },
        {
          "internalType": "enum DecentralizedFreelanceMarket.UserType",
          "name": "userType",
          "type": "uint8"
        },
        {
          "internalType": "string",
          "name": "name",
          "type": "string"
        },
        {
          "internalType": "string",
          "name": "description",
          "type": "string"
        },
        {
          "internalType": "string",
          "name": "email",
          "type": "string"
        },
        {
          "internalType": "uint256",
          "name": "credits",
          "type": "uint256"
        }
      ],
      "stateMutability": "view",
      "type": "function"
    },
    {
      "inputs": [
        {
          "internalType": "uint256",
          "name": "disputeId",
          "type": "uint256"
        },
        {
          "internalType": "bool",
          "name": "vote",
          "type": "bool"
        }
      ],
      "name": "voteDispute",
      "outputs": [],
      "stateMutability": "nonpayable",
      "type": "function"
    }
  ],
  "bytecode": "0x608060405234801561001057600080fd5b506165fe80620000216000396000f3fe6080604052600436106101b75760003560e01c80635aef573c116100ec578063b337803c1161008a578063d5fe51b011610064578063d5fe51b01461067f578063f8a518ed146106a8578063fa3668a8146106d3578063fb405ffc14610710576101b7565b8063b337803c146105f0578063c2b7b86814610619578063d51d500614610642576101b7565b8063a0ecde6e116100c6578063a0ecde6e1461050b578063a87430ba14610534578063a8880fdc14610576578063afba3d68146105b3576101b7565b80635aef573c1461048e5780637d36f4d3146104b75780639a772079146104e2576101b7565b80633b006b0211610159578063438596321161013357806343859632146103c8578063564a565d14610405578063569c67ec146104495780635a15e56714610465576101b7565b80633b006b0214610325578063427583a214610362578063431f25c91461039f576101b7565b8063107046bd11610195578063107046bd146102525780631977be631461029657806323c55448146102bf578063307838cc146102e8576101b7565b806303633a58146101bc578063038b4cb9146101e55780630f53a4701461020e575b600080fd5b3480156101c857600080fd5b506101e360048036038101906101de9190614a8a565b61073b565b005b3480156101f157600080fd5b5061020c60048036038101906102079190614b15565b610796565b005b34801561021a57600080fd5b5061023560048036038101906102309190614b55565b610a09565b604051610249989796959493929190614e62565b60405180910390f35b34801561025e57600080fd5b5061027960048036038101906102749190614a8a565b610f0f565b60405161028d989796959493929190614f61565b60405180910390f35b3480156102a257600080fd5b506102bd60048036038101906102b8919061502c565b61113c565b005b3480156102cb57600080fd5b506102e660048036038101906102e191906151a1565b6114db565b005b3480156102f457600080fd5b5061030f600480360381019061030a9190614a8a565b6118e1565b60405161031c91906152ea565b60405180910390f35b34801561033157600080fd5b5061034c6004803603810190610347919061530c565b611ade565b604051610359919061534c565b60405180910390f35b34801561036e57600080fd5b5061038960048036038101906103849190615367565b611b2c565b60405161039691906153a7565b60405180910390f35b3480156103ab57600080fd5b506103c660048036038101906103c19190614a8a565b611b5d565b005b3480156103d457600080fd5b506103ef60048036038101906103ea9190614b15565b611f1b565b6040516103fc91906153d1565b60405180910390f35b34801561041157600080fd5b5061042c60048036038101906104279190614a8a565b611f4a565b6040516104409897969594939291906153ec565b60405180910390f35b610463600480360381019061045e9190614a8a565b612067565b005b34801561047157600080fd5b5061048c60048036038101906104879190615557565b61222c565b005b34801561049a57600080fd5b506104b560048036038101906104b0919061565e565b61242f565b005b3480156104c357600080fd5b506104cc6128f0565b6040516104d991906153a7565b60405180910390f35b3480156104ee57600080fd5b50610509600480360381019061050491906156df565b6128f6565b005b34801561051757600080fd5b50610532600480360381019061052d919061530c565b612cd2565b005b34801561054057600080fd5b5061055b60048036038101906105569190614b55565b6131af565b60405161056d9695949392919061576a565b60405180910390f35b34801561058257600080fd5b5061059d60048036038101906105989190614a8a565b6133b0565b6040516105aa91906153a7565b60405180910390f35b3480156105bf57600080fd5b506105da60048036038101906105d59190615367565b613426565b6040516105e791906153a7565b60405180910390f35b3480156105fc57600080fd5b5061061760048036038101906106129190614a8a565b613457565b005b34801561062557600080fd5b50610640600480360381019061063b9190614a8a565b613739565b005b34801561064e57600080fd5b5061066960048036038101906106649190615805565b613801565b60405161067691906159c1565b60405180910390f35b34801561068b57600080fd5b506106a660048036038101906106a1919061565e565b613cf1565b005b3480156106b457600080fd5b506106bd613eb7565b6040516106ca91906153a7565b60405180910390f35b3480156106df57600080fd5b506106fa60048036038101906106f59190615805565b613ebd565b60405161070791906159c1565b60405180910390f35b34801561071c57600080fd5b506107256143ad565b60405161073291906153a7565b60405180910390f35b8060006002600083815260200190815260200160002090508060060160009054906101000a900460ff161580156107825750603c816007015461077e9190615a12565b4210155b1561079157610790826143b2565b5b505050565b813373ffffffffffffffffffffffffffffffffffffffff166001600083815260200190815260200160002060010160009054906101000a900473ffffffffffffffffffffffffffffffffffffffff1673ffffffffffffffffffffffffffffffffffffffff161461083b576040517f08c379a000000000000000000000000000000000000000000000000000000000815260040161083290615ab8565b60405180910390fd5b82600060058111156108505761084f614deb565b5b6001600083815260200190815260200160002060050160009054906101000a900460ff16600581111561088657610885614deb565b5b146108c6576040517f08c379a00000000000000000000000000000000000000000000000000000000081526004016108bd90615b24565b60405180910390fd5b826001600086815260200190815260200160002060070160006101000a81548173ffffffffffffffffffffffffffffffffffffffff021916908373ffffffffffffffffffffffffffffffffffffffff160217905550600180600086815260200190815260200160002060050160006101000a81548160ff0219169083600581111561095457610953614deb565b5b0217905550600660008473ffffffffffffffffffffffffffffffffffffffff1673ffffffffffffffffffffffffffffffffffffffff1681526020019081526020016000208490806001815401808255809150506001900390600052602060002001600090919091909150558273ffffffffffffffffffffffffffffffffffffffff16847f3afbe557720c657b357055519b7971ffa35cd23fd38a67024de49537d7b20e4060405160405180910390a350505050565b60608060608060606000606060008073ffffffffffffffffffffffffffffffffffffffff166000803373ffffffffffffffffffffffffffffffffffffffff1673ffffffffffffffffffffffffffffffffffffffff16815260200190815260200160002060000160009054906101000a900473ffffffffffffffffffffffffffffffffffffffff1673ffffffffffffffffffffffffffffffffffffffff1603610ae6576040517f08c379a0000000000000000000000000000000000000000000000000000000008152600401610add90615b90565b60405180910390fd5b60008060008b73ffffffffffffffffffffffffffffffffffffffff1673ffffffffffffffffffffffffffffffffffffffff168152602001908152602001600020905080600101816002018260030183600501846006018560040154866007018760000160149054906101000a900460ff16878054610b6390615bdf565b80601f0160208091040260200160405190810160405280929190818152602001828054610b8f90615bdf565b8015610bdc5780601f10610bb157610100808354040283529160200191610bdc565b820191906000526020600020905b815481529060010190602001808311610bbf57829003601f168201915b50505050509750868054610bef90615bdf565b80601f0160208091040260200160405190810160405280929190818152602001828054610c1b90615bdf565b8015610c685780601f10610c3d57610100808354040283529160200191610c68565b820191906000526020600020905b815481529060010190602001808311610c4b57829003601f168201915b50505050509650858054610c7b90615bdf565b80601f0160208091040260200160405190810160405280929190818152602001828054610ca790615bdf565b8015610cf45780601f10610cc957610100808354040283529160200191610cf4565b820191906000526020600020905b815481529060010190602001808311610cd757829003601f168201915b5050505050955084805480602002602001604051908101604052809291908181526020016000905b82821015610dc8578382906000526020600020018054610d3b90615bdf565b80601f0160208091040260200160405190810160405280929190818152602001828054610d6790615bdf565b8015610db45780601f10610d8957610100808354040283529160200191610db4565b820191906000526020600020905b815481529060010190602001808311610d9757829003601f168201915b505050505081526020019060010190610d1c565b50505050945083805480602002602001604051908101604052809291908181526020016000905b82821015610e9b578382906000526020600020018054610e0e90615bdf565b80601f0160208091040260200160405190810160405280929190818152602001828054610e3a90615bdf565b8015610e875780601f10610e5c57610100808354040283529160200191610e87565b820191906000526020600020905b815481529060010190602001808311610e6a57829003601f168201915b505050505081526020019060010190610def565b50505050935081805480602002602001604051908101604052809291908181526020018280548015610eec57602002820191906000526020600020905b815481526020019060010190808311610ed8575b505050505091509850985098509850985098509850985050919395975091939597565b60016020528060005260406000206000915090508060000154908060010160009054906101000a900473ffffffffffffffffffffffffffffffffffffffff1690806002018054610f5e90615bdf565b80601f0160208091040260200160405190810160405280929190818152602001828054610f8a90615bdf565b8015610fd75780601f10610fac57610100808354040283529160200191610fd7565b820191906000526020600020905b815481529060010190602001808311610fba57829003601f168201915b505050505090806003018054610fec90615bdf565b80601f016020809104026020016040519081016040528092919081815260200182805461101890615bdf565b80156110655780601f1061103a57610100808354040283529160200191611065565b820191906000526020600020905b81548152906001019060200180831161104857829003601f168201915b5050505050908060040154908060050160009054906101000a900460ff169080600601805461109390615bdf565b80601f01602080910402602001604051908101604052809291908181526020018280546110bf90615bdf565b801561110c5780601f106110e15761010080835404028352916020019161110c565b820191906000526020600020905b8154815290600101906020018083116110ef57829003601f168201915b5050505050908060070160009054906101000a900473ffffffffffffffffffffffffffffffffffffffff16905088565b600073ffffffffffffffffffffffffffffffffffffffff166000803373ffffffffffffffffffffffffffffffffffffffff1673ffffffffffffffffffffffffffffffffffffffff16815260200190815260200160002060000160009054906101000a900473ffffffffffffffffffffffffffffffffffffffff1673ffffffffffffffffffffffffffffffffffffffff160361120c576040517f08c379a000000000000000000000000000000000000000000000000000000000815260040161120390615b90565b60405180910390fd5b8160006002600083815260200190815260200160002090508060060160009054906101000a900460ff161580156112535750603c816007015461124f9190615a12565b4210155b1561126257611261826143b2565b5b6002600085815260200190815260200160002060060160009054906101000a900460ff16156112c6576040517f08c379a00000000000000000000000000000000000000000000000000000000081526004016112bd90615c5c565b60405180910390fd5b6004600085815260200190815260200160002060003373ffffffffffffffffffffffffffffffffffffffff1673ffffffffffffffffffffffffffffffffffffffff16815260200190815260200160002060009054906101000a900460ff1615611364576040517f08c379a000000000000000000000000000000000000000000000000000000000815260040161135b90615cc8565b60405180910390fd5b6000600a6000803373ffffffffffffffffffffffffffffffffffffffff1673ffffffffffffffffffffffffffffffffffffffff168152602001908152602001600020600401546113b49190615d17565b905083156113ee57806002600087815260200190815260200160002060040160008282546113e29190615a12565b9250508190555061141c565b806002600087815260200190815260200160002060050160008282546114149190615a12565b925050819055505b60016004600087815260200190815260200160002060003373ffffffffffffffffffffffffffffffffffffffff1673ffffffffffffffffffffffffffffffffffffffff16815260200190815260200160002060006101000a81548160ff0219169083151502179055503373ffffffffffffffffffffffffffffffffffffffff16857f910296c2d7f214e2d62a9c4e6e403cc9c5ac4585d96830dbf018e51c75fd0826866040516114cc91906153d1565b60405180910390a35050505050565b600073ffffffffffffffffffffffffffffffffffffffff166000803373ffffffffffffffffffffffffffffffffffffffff1673ffffffffffffffffffffffffffffffffffffffff16815260200190815260200160002060000160009054906101000a900473ffffffffffffffffffffffffffffffffffffffff1673ffffffffffffffffffffffffffffffffffffffff16036115ab576040517f08c379a00000000000000000000000000000000000000000000000000000000081526004016115a290615b90565b60405180910390fd5b6001808111156115be576115bd614deb565b5b6000803373ffffffffffffffffffffffffffffffffffffffff1673ffffffffffffffffffffffffffffffffffffffff16815260200190815260200160002060000160149054906101000a900460ff16600181111561161f5761161e614deb565b5b1461165f576040517f08c379a000000000000000000000000000000000000000000000000000000000815260040161165690615d94565b60405180910390fd5b6007600081548092919061167290615db4565b919050555060405180610100016040528060075481526020013373ffffffffffffffffffffffffffffffffffffffff168152602001848152602001838152602001828152602001600060058111156116cd576116cc614deb565b5b8152602001604051806020016040528060008152508152602001600073ffffffffffffffffffffffffffffffffffffffff168152506001600060075481526020019081526020016000206000820151816000015560208201518160010160006101000a81548173ffffffffffffffffffffffffffffffffffffffff021916908373ffffffffffffffffffffffffffffffffffffffff160217905550604082015181600201908161177d9190615fa8565b5060608201518160030190816117939190615fa8565b506080820151816004015560a08201518160050160006101000a81548160ff021916908360058111156117c9576117c8614deb565b5b021790555060c08201518160060190816117e39190615fa8565b5060e08201518160070160006101000a81548173ffffffffffffffffffffffffffffffffffffffff021916908373ffffffffffffffffffffffffffffffffffffffff160217905550905050600560003373ffffffffffffffffffffffffffffffffffffffff1673ffffffffffffffffffffffffffffffffffffffff16815260200190815260200160002060075490806001815401808255809150506001900390600052602060002001600090919091909150553373ffffffffffffffffffffffffffffffffffffffff166007547f63c92f9505d420bff631cb9df33be952bdc11e2118da36a850b43e6bcc4ce4de60405160405180910390a3505050565b6060600073ffffffffffffffffffffffffffffffffffffffff166000803373ffffffffffffffffffffffffffffffffffffffff1673ffffffffffffffffffffffffffffffffffffffff16815260200190815260200160002060000160009054906101000a900473ffffffffffffffffffffffffffffffffffffffff1673ffffffffffffffffffffffffffffffffffffffff16036119b3576040517f08c379a00000000000000000000000000000000000000000000000000000000081526004016119aa90615b90565b60405180910390fd5b81600060058111156119c8576119c7614deb565b5b6001600083815260200190815260200160002060050160009054906101000a900460ff1660058111156119fe576119fd614deb565b5b14611a3e576040517f08c379a0000000000000000000000000000000000000000000000000000000008152600401611a3590615b24565b60405180910390fd5b60036000848152602001908152602001600020805480602002602001604051908101604052809291908181526020018280548015611ad157602002820191906000526020600020905b8160009054906101000a900473ffffffffffffffffffffffffffffffffffffffff1673ffffffffffffffffffffffffffffffffffffffff1681526020019060010190808311611a87575b5050505050915050919050565b60036020528160005260406000208181548110611afa57600080fd5b906000526020600020016000915091509054906101000a900473ffffffffffffffffffffffffffffffffffffffff1681565b60056020528160005260406000208181548110611b4857600080fd5b90600052602060002001600091509150505481565b600073ffffffffffffffffffffffffffffffffffffffff166000803373ffffffffffffffffffffffffffffffffffffffff1673ffffffffffffffffffffffffffffffffffffffff16815260200190815260200160002060000160009054906101000a900473ffffffffffffffffffffffffffffffffffffffff1673ffffffffffffffffffffffffffffffffffffffff1603611c2d576040517f08c379a0000000000000000000000000000000000000000000000000000000008152600401611c2490615b90565b60405180910390fd5b8060006005811115611c4257611c41614deb565b5b6001600083815260200190815260200160002060050160009054906101000a900460ff166005811115611c7857611c77614deb565b5b14611cb8576040517f08c379a0000000000000000000000000000000000000000000000000000000008152600401611caf90615b24565b60405180910390fd5b60006001811115611ccc57611ccb614deb565b5b6000803373ffffffffffffffffffffffffffffffffffffffff1673ffffffffffffffffffffffffffffffffffffffff16815260200190815260200160002060000160149054906101000a900460ff166001811115611d2d57611d2c614deb565b5b14611d6d576040517f08c379a0000000000000000000000000000000000000000000000000000000008152600401611d64906160c6565b60405180910390fd5b60005b6003600084815260200190815260200160002080549050811015611e5e573373ffffffffffffffffffffffffffffffffffffffff16600360008581526020019081526020016000208281548110611dca57611dc96160e6565b5b9060005260206000200160009054906101000a900473ffffffffffffffffffffffffffffffffffffffff1673ffffffffffffffffffffffffffffffffffffffff1603611e4b576040517f08c379a0000000000000000000000000000000000000000000000000000000008152600401611e4290616161565b60405180910390fd5b8080611e5690615db4565b915050611d70565b5060036000838152602001908152602001600020339080600181540180825580915050600190039060005260206000200160009091909190916101000a81548173ffffffffffffffffffffffffffffffffffffffff021916908373ffffffffffffffffffffffffffffffffffffffff1602179055503373ffffffffffffffffffffffffffffffffffffffff16827fc943d53c44d2490fc5c2ea5a2bb6e803ddcd8d204be29190f94dda267f19c2c660405160405180910390a35050565b60046020528160005260406000206020528060005260406000206000915091509054906101000a900460ff1681565b60026020528060005260406000206000915090508060000154908060010160009054906101000a900473ffffffffffffffffffffffffffffffffffffffff16908060020160009054906101000a900473ffffffffffffffffffffffffffffffffffffffff1690806003018054611fbf90615bdf565b80601f0160208091040260200160405190810160405280929190818152602001828054611feb90615bdf565b80156120385780601f1061200d57610100808354040283529160200191612038565b820191906000526020600020905b81548152906001019060200180831161201b57829003601f168201915b5050505050908060040154908060050154908060060160009054906101000a900460ff16908060070154905088565b803373ffffffffffffffffffffffffffffffffffffffff166001600083815260200190815260200160002060010160009054906101000a900473ffffffffffffffffffffffffffffffffffffffff1673ffffffffffffffffffffffffffffffffffffffff161461210c576040517f08c379a000000000000000000000000000000000000000000000000000000000815260040161210390615ab8565b60405180910390fd5b816001600581111561212157612120614deb565b5b6001600083815260200190815260200160002060050160009054906101000a900460ff16600581111561215757612156614deb565b5b14612197576040517f08c379a000000000000000000000000000000000000000000000000000000000815260040161218e906161cd565b60405180910390fd5b600160008481526020019081526020016000206004015434146121ef576040517f08c379a00000000000000000000000000000000000000000000000000000000081526004016121e690616239565b60405180910390fd5b827f9aa35a5f090fd5c6509ac753eede56227b07113381490102030e41695add80823460405161221f91906153a7565b60405180910390a2505050565b600073ffffffffffffffffffffffffffffffffffffffff166000803373ffffffffffffffffffffffffffffffffffffffff1673ffffffffffffffffffffffffffffffffffffffff16815260200190815260200160002060000160009054906101000a900473ffffffffffffffffffffffffffffffffffffffff1673ffffffffffffffffffffffffffffffffffffffff16036122fc576040517f08c379a00000000000000000000000000000000000000000000000000000000081526004016122f390615b90565b60405180910390fd5b60008060003373ffffffffffffffffffffffffffffffffffffffff1673ffffffffffffffffffffffffffffffffffffffff16815260200190815260200160002090508581600101908161234f9190615fa8565b50848160020190816123619190615fa8565b50838160030190816123739190615fa8565b506000600181111561238857612387614deb565b5b8160000160149054906101000a900460ff1660018111156123ac576123ab614deb565b5b036123e457828160050190805190602001906123c9929190614896565b50818160060190805190602001906123e2929190614896565b505b3373ffffffffffffffffffffffffffffffffffffffff167fbe4ec58a792f909e102ee3d745d0c3b34a4d437a54d903c4db098d31c556422f60405160405180910390a2505050505050565b6001600581111561244357612442614deb565b5b6001600084815260200190815260200160002060050160009054906101000a900460ff16600581111561247957612478614deb565b5b14806124cb575060058081111561249357612492614deb565b5b6001600084815260200190815260200160002060050160009054906101000a900460ff1660058111156124c9576124c8614deb565b5b145b61250a576040517f08c379a0000000000000000000000000000000000000000000000000000000008152600401612501906162cb565b60405180910390fd5b3373ffffffffffffffffffffffffffffffffffffffff166001600084815260200190815260200160002060010160009054906101000a900473ffffffffffffffffffffffffffffffffffffffff1673ffffffffffffffffffffffffffffffffffffffff1614806125db57503373ffffffffffffffffffffffffffffffffffffffff166001600084815260200190815260200160002060070160009054906101000a900473ffffffffffffffffffffffffffffffffffffffff1673ffffffffffffffffffffffffffffffffffffffff16145b61261a576040517f08c379a00000000000000000000000000000000000000000000000000000000081526004016126119061635d565b60405180910390fd5b6008600081548092919061262d90615db4565b91905055506040518061010001604052808381526020013373ffffffffffffffffffffffffffffffffffffffff1681526020016001600085815260200190815260200160002060010160009054906101000a900473ffffffffffffffffffffffffffffffffffffffff1673ffffffffffffffffffffffffffffffffffffffff163373ffffffffffffffffffffffffffffffffffffffff1614612705576001600085815260200190815260200160002060010160009054906101000a900473ffffffffffffffffffffffffffffffffffffffff1661273d565b6001600085815260200190815260200160002060070160009054906101000a900473ffffffffffffffffffffffffffffffffffffffff165b73ffffffffffffffffffffffffffffffffffffffff1681526020018281526020016000815260200160008152602001600015158152602001428152506002600060085481526020019081526020016000206000820151816000015560208201518160010160006101000a81548173ffffffffffffffffffffffffffffffffffffffff021916908373ffffffffffffffffffffffffffffffffffffffff16021790555060408201518160020160006101000a81548173ffffffffffffffffffffffffffffffffffffffff021916908373ffffffffffffffffffffffffffffffffffffffff160217905550606082015181600301908161283b9190615fa8565b506080820151816004015560a0820151816005015560c08201518160060160006101000a81548160ff02191690831515021790555060e0820151816007015590505060036001600084815260200190815260200160002060050160006101000a81548160ff021916908360058111156128b7576128b6614deb565b5b0217905550816008547f1954f0ea9e3f5fbdc693320e038db1549f419ae5351b74d36cee7c9ef13dd2b660405160405180910390a35050565b60085481565b600073ffffffffffffffffffffffffffffffffffffffff166000803373ffffffffffffffffffffffffffffffffffffffff1673ffffffffffffffffffffffffffffffffffffffff16815260200190815260200160002060000160009054906101000a900473ffffffffffffffffffffffffffffffffffffffff1673ffffffffffffffffffffffffffffffffffffffff16146129c6576040517f08c379a00000000000000000000000000000000000000000000000000000000081526004016129bd906163c9565b60405180910390fd5b6040518061012001604052803373ffffffffffffffffffffffffffffffffffffffff168152602001846001811115612a0157612a00614deb565b5b815260200183815260200160405180602001604052806000815250815260200182815260200160008152602001600067ffffffffffffffff811115612a4957612a48615076565b5b604051908082528060200260200182016040528015612a7c57816020015b6060815260200190600190039081612a675790505b508152602001600067ffffffffffffffff811115612a9d57612a9c615076565b5b604051908082528060200260200182016040528015612ad057816020015b6060815260200190600190039081612abb5790505b508152602001600067ffffffffffffffff811115612af157612af0615076565b5b604051908082528060200260200182016040528015612b1f5781602001602082028036833780820191505090505b508152506000803373ffffffffffffffffffffffffffffffffffffffff1673ffffffffffffffffffffffffffffffffffffffff16815260200190815260200160002060008201518160000160006101000a81548173ffffffffffffffffffffffffffffffffffffffff021916908373ffffffffffffffffffffffffffffffffffffffff16021790555060208201518160000160146101000a81548160ff02191690836001811115612bd357612bd2614deb565b5b02179055506040820151816001019081612bed9190615fa8565b506060820151816002019081612c039190615fa8565b506080820151816003019081612c199190615fa8565b5060a0820151816004015560c0820151816005019080519060200190612c40929190614896565b5060e0820151816006019080519060200190612c5d929190614896565b50610100820151816007019080519060200190612c7b9291906148ef565b509050503373ffffffffffffffffffffffffffffffffffffffff167f8e18574f8a7333e6a87112742a55853a643e2f0550f4e1a3a2c3f1bb2994441d84604051612cc591906163e9565b60405180910390a2505050565b813373ffffffffffffffffffffffffffffffffffffffff166001600083815260200190815260200160002060010160009054906101000a900473ffffffffffffffffffffffffffffffffffffffff1673ffffffffffffffffffffffffffffffffffffffff1614612d77576040517f08c379a0000000000000000000000000000000000000000000000000000000008152600401612d6e90615ab8565b60405180910390fd5b8260016005811115612d8c57612d8b614deb565b5b6001600083815260200190815260200160002060050160009054906101000a900460ff166005811115612dc257612dc1614deb565b5b1480612e145750600580811115612ddc57612ddb614deb565b5b6001600083815260200190815260200160002060050160009054906101000a900460ff166005811115612e1257612e11614deb565b5b145b612e53576040517f08c379a0000000000000000000000000000000000000000000000000000000008152600401612e4a90616476565b60405180910390fd5b60026001600086815260200190815260200160002060050160006101000a81548160ff02191690836005811115612e8d57612e8c614deb565b5b0217905550600a6000806001600088815260200190815260200160002060010160009054906101000a900473ffffffffffffffffffffffffffffffffffffffff1673ffffffffffffffffffffffffffffffffffffffff1673ffffffffffffffffffffffffffffffffffffffff1681526020019081526020016000206004016000828254612f1a9190615a12565b92505081905550600a6000806001600088815260200190815260200160002060070160009054906101000a900473ffffffffffffffffffffffffffffffffffffffff1673ffffffffffffffffffffffffffffffffffffffff1673ffffffffffffffffffffffffffffffffffffffff1681526020019081526020016000206004016000828254612fa99190615a12565b925050819055506000806001600087815260200190815260200160002060070160009054906101000a900473ffffffffffffffffffffffffffffffffffffffff1673ffffffffffffffffffffffffffffffffffffffff1673ffffffffffffffffffffffffffffffffffffffff1681526020019081526020016000206007018390806001815401808255809150506001900390600052602060002001600090919091909150556001600085815260200190815260200160002060070160009054906101000a900473ffffffffffffffffffffffffffffffffffffffff1673ffffffffffffffffffffffffffffffffffffffff166108fc60016000878152602001908152602001600020600401549081150290604051600060405180830381858888f193505050501580156130e0573d6000803e3d6000fd5b506001600085815260200190815260200160002060070160009054906101000a900473ffffffffffffffffffffffffffffffffffffffff1673ffffffffffffffffffffffffffffffffffffffff16847f5f553115a120073eb03d935efcbd2b429dea2fed8d5896cc5d326e83fa06fbe0600160008881526020019081526020016000206004015460405161317491906153a7565b60405180910390a3837ffc534544f8ed1b516bf078b4ae88509d8f81f4fafefb10e9aad53e3e1fbce9bb60405160405180910390a250505050565b60006020528060005260406000206000915090508060000160009054906101000a900473ffffffffffffffffffffffffffffffffffffffff16908060000160149054906101000a900460ff169080600101805461320b90615bdf565b80601f016020809104026020016040519081016040528092919081815260200182805461323790615bdf565b80156132845780601f1061325957610100808354040283529160200191613284565b820191906000526020600020905b81548152906001019060200180831161326757829003601f168201915b50505050509080600201805461329990615bdf565b80601f01602080910402602001604051908101604052809291908181526020018280546132c590615bdf565b80156133125780601f106132e757610100808354040283529160200191613312565b820191906000526020600020905b8154815290600101906020018083116132f557829003601f168201915b50505050509080600301805461332790615bdf565b80601f016020809104026020016040519081016040528092919081815260200182805461335390615bdf565b80156133a05780601f10613375576101008083540402835291602001916133a0565b820191906000526020600020905b81548152906001019060200180831161338357829003601f168201915b5050505050908060040154905086565b6000806002600084815260200190815260200160002090508060060160009054906101000a900460ff16156133e9576000915050613421565b6000603c82600701546133fc9190615a12565b905080421061341057600092505050613421565b428161341c9190616496565b925050505b919050565b6006602052816000526040600020818154811061344257600080fd5b90600052602060002001600091509150505481565b60006001600083815260200190815260200160002090506002600581111561348257613481614deb565b5b8160050160009054906101000a900460ff1660058111156134a6576134a5614deb565b5b14806134e75750600460058111156134c1576134c0614deb565b5b8160050160009054906101000a900460ff1660058111156134e5576134e4614deb565b5b145b613526576040517f08c379a000000000000000000000000000000000000000000000000000000000815260040161351d90616516565b60405180910390fd5b6002600581111561353a57613539614deb565b5b8160050160009054906101000a900460ff16600581111561355e5761355d614deb565b5b0361364e578060070160009054906101000a900473ffffffffffffffffffffffffffffffffffffffff1673ffffffffffffffffffffffffffffffffffffffff166108fc82600401549081150290604051600060405180830381858888f193505050501580156135d1573d6000803e3d6000fd5b508060070160009054906101000a900473ffffffffffffffffffffffffffffffffffffffff1673ffffffffffffffffffffffffffffffffffffffff16827f5f553115a120073eb03d935efcbd2b429dea2fed8d5896cc5d326e83fa06fbe0836004015460405161364191906153a7565b60405180910390a3613735565b8060010160009054906101000a900473ffffffffffffffffffffffffffffffffffffffff1673ffffffffffffffffffffffffffffffffffffffff166108fc82600401549081150290604051600060405180830381858888f193505050501580156136bc573d6000803e3d6000fd5b508060010160009054906101000a900473ffffffffffffffffffffffffffffffffffffffff1673ffffffffffffffffffffffffffffffffffffffff16827f5f553115a120073eb03d935efcbd2b429dea2fed8d5896cc5d326e83fa06fbe0836004015460405161372c91906153a7565b60405180910390a35b5050565b8060006002600083815260200190815260200160002090508060060160009054906101000a900460ff161580156137805750603c816007015461377c9190615a12565b4210155b1561378f5761378e826143b2565b5b6002600084815260200190815260200160002060060160009054906101000a900460ff16156137f3576040517f08c379a00000000000000000000000000000000000000000000000000000000081526004016137ea90615c5c565b60405180910390fd5b6137fc836143b2565b505050565b60606000600560003373ffffffffffffffffffffffffffffffffffffffff1673ffffffffffffffffffffffffffffffffffffffff16815260200190815260200160002090506000805b82805490508110156138e35784600581111561386957613868614deb565b5b600160008584815481106138805761387f6160e6565b5b9060005260206000200154815260200190815260200160002060050160009054906101000a900460ff1660058111156138bc576138bb614deb565b5b036138d05781806138cc90615db4565b9250505b80806138db90615db4565b91505061384a565b5060008167ffffffffffffffff811115613900576138ff615076565b5b60405190808252806020026020018201604052801561393957816020015b61392661493c565b81526020019060019003908161391e5790505b5090506000805b8480549050811015613ce45786600581111561395f5761395e614deb565b5b60016000878481548110613976576139756160e6565b5b9060005260206000200154815260200190815260200160002060050160009054906101000a900460ff1660058111156139b2576139b1614deb565b5b03613cd157600160008683815481106139ce576139cd6160e6565b5b9060005260206000200154815260200190815260200160002060405180610100016040529081600082015481526020016001820160009054906101000a900473ffffffffffffffffffffffffffffffffffffffff1673ffffffffffffffffffffffffffffffffffffffff1673ffffffffffffffffffffffffffffffffffffffff168152602001600282018054613a6390615bdf565b80601f0160208091040260200160405190810160405280929190818152602001828054613a8f90615bdf565b8015613adc5780601f10613ab157610100808354040283529160200191613adc565b820191906000526020600020905b815481529060010190602001808311613abf57829003601f168201915b50505050508152602001600382018054613af590615bdf565b80601f0160208091040260200160405190810160405280929190818152602001828054613b2190615bdf565b8015613b6e5780601f10613b4357610100808354040283529160200191613b6e565b820191906000526020600020905b815481529060010190602001808311613b5157829003601f168201915b50505050508152602001600482015481526020016005820160009054906101000a900460ff166005811115613ba657613ba5614deb565b5b6005811115613bb857613bb7614deb565b5b8152602001600682018054613bcc90615bdf565b80601f0160208091040260200160405190810160405280929190818152602001828054613bf890615bdf565b8015613c455780601f10613c1a57610100808354040283529160200191613c45565b820191906000526020600020905b815481529060010190602001808311613c2857829003601f168201915b505050505081526020016007820160009054906101000a900473ffffffffffffffffffffffffffffffffffffffff1673ffffffffffffffffffffffffffffffffffffffff1673ffffffffffffffffffffffffffffffffffffffff1681525050838381518110613cb757613cb66160e6565b5b60200260200101819052508180613ccd90615db4565b9250505b8080613cdc90615db4565b915050613940565b5081945050505050919050565b813373ffffffffffffffffffffffffffffffffffffffff166001600083815260200190815260200160002060070160009054906101000a900473ffffffffffffffffffffffffffffffffffffffff1673ffffffffffffffffffffffffffffffffffffffff1614613d96576040517f08c379a0000000000000000000000000000000000000000000000000000000008152600401613d8d906165a8565b60405180910390fd5b8260016005811115613dab57613daa614deb565b5b6001600083815260200190815260200160002060050160009054906101000a900460ff166005811115613de157613de0614deb565b5b14613e21576040517f08c379a0000000000000000000000000000000000000000000000000000000008152600401613e18906161cd565b60405180910390fd5b60056001600086815260200190815260200160002060050160006101000a81548160ff02191690836005811115613e5b57613e5a614deb565b5b021790555082600160008681526020019081526020016000206006019081613e839190615fa8565b50837f60d8df137e489b6216738e436244ca4700bd6d0c8371d3c8d9c80b54538111b960405160405180910390a250505050565b60075481565b60606000600660003373ffffffffffffffffffffffffffffffffffffffff1673ffffffffffffffffffffffffffffffffffffffff16815260200190815260200160002090506000805b8280549050811015613f9f57846005811115613f2557613f24614deb565b5b60016000858481548110613f3c57613f3b6160e6565b5b9060005260206000200154815260200190815260200160002060050160009054906101000a900460ff166005811115613f7857613f77614deb565b5b03613f8c578180613f8890615db4565b9250505b8080613f9790615db4565b915050613f06565b5060008167ffffffffffffffff811115613fbc57613fbb615076565b5b604051908082528060200260200182016040528015613ff557816020015b613fe261493c565b815260200190600190039081613fda5790505b5090506000805b84805490508110156143a05786600581111561401b5761401a614deb565b5b60016000878481548110614032576140316160e6565b5b9060005260206000200154815260200190815260200160002060050160009054906101000a900460ff16600581111561406e5761406d614deb565b5b0361438d576001600086838154811061408a576140896160e6565b5b9060005260206000200154815260200190815260200160002060405180610100016040529081600082015481526020016001820160009054906101000a900473ffffffffffffffffffffffffffffffffffffffff1673ffffffffffffffffffffffffffffffffffffffff1673ffffffffffffffffffffffffffffffffffffffff16815260200160028201805461411f90615bdf565b80601f016020809104026020016040519081016040528092919081815260200182805461414b90615bdf565b80156141985780601f1061416d57610100808354040283529160200191614198565b820191906000526020600020905b81548152906001019060200180831161417b57829003601f168201915b505050505081526020016003820180546141b190615bdf565b80601f01602080910402602001604051908101604052809291908181526020018280546141dd90615bdf565b801561422a5780601f106141ff5761010080835404028352916020019161422a565b820191906000526020600020905b81548152906001019060200180831161420d57829003601f168201915b50505050508152602001600482015481526020016005820160009054906101000a900460ff16600581111561426257614261614deb565b5b600581111561427457614273614deb565b5b815260200160068201805461428890615bdf565b80601f01602080910402602001604051908101604052809291908181526020018280546142b490615bdf565b80156143015780601f106142d657610100808354040283529160200191614301565b820191906000526020600020905b8154815290600101906020018083116142e457829003601f168201915b505050505081526020016007820160009054906101000a900473ffffffffffffffffffffffffffffffffffffffff1673ffffffffffffffffffffffffffffffffffffffff1673ffffffffffffffffffffffffffffffffffffffff1681525050838381518110614373576143726160e6565b5b6020026020010181905250818061438990615db4565b9250505b808061439890615db4565b915050613ffc565b5081945050505050919050565b603c81565b60006002600083815260200190815260200160002090508060060160009054906101000a900460ff16156143e65750614893565b600060016000836000015481526020019081526020016000209050600082600501548360040154111561451d5760018081111561442657614425614deb565b5b6000808560010160009054906101000a900473ffffffffffffffffffffffffffffffffffffffff1673ffffffffffffffffffffffffffffffffffffffff1673ffffffffffffffffffffffffffffffffffffffff16815260200190815260200160002060000160149054906101000a900460ff1660018111156144ab576144aa614deb565b5b036144e65760048260050160006101000a81548160ff021916908360058111156144d8576144d7614deb565b5b021790555060019050614518565b60028260050160006101000a81548160ff0219169083600581111561450e5761450d614deb565b5b0217905550600090505b614623565b6001808111156145305761452f614deb565b5b6000808560010160009054906101000a900473ffffffffffffffffffffffffffffffffffffffff1673ffffffffffffffffffffffffffffffffffffffff1673ffffffffffffffffffffffffffffffffffffffff16815260200190815260200160002060000160149054906101000a900460ff1660018111156145b5576145b4614deb565b5b036145f05760028260050160006101000a81548160ff021916908360058111156145e2576145e1614deb565b5b021790555060009050614622565b60048260050160006101000a81548160ff0219169083600581111561461857614617614deb565b5b0217905550600190505b5b60018360060160006101000a81548160ff021916908315150217905550837f5a87909bff68caaaaf0b3fd9c74eeccc928832f879315e5c6fb7a73612f26c0c8260405161467091906153d1565b60405180910390a26002600581111561468c5761468b614deb565b5b8260050160009054906101000a900460ff1660058111156146b0576146af614deb565b5b036147a4578160070160009054906101000a900473ffffffffffffffffffffffffffffffffffffffff1673ffffffffffffffffffffffffffffffffffffffff166108fc83600401549081150290604051600060405180830381858888f19350505050158015614723573d6000803e3d6000fd5b508160070160009054906101000a900473ffffffffffffffffffffffffffffffffffffffff1673ffffffffffffffffffffffffffffffffffffffff1683600001547f5f553115a120073eb03d935efcbd2b429dea2fed8d5896cc5d326e83fa06fbe0846004015460405161479791906153a7565b60405180910390a361488f565b8160010160009054906101000a900473ffffffffffffffffffffffffffffffffffffffff1673ffffffffffffffffffffffffffffffffffffffff166108fc83600401549081150290604051600060405180830381858888f19350505050158015614812573d6000803e3d6000fd5b508160010160009054906101000a900473ffffffffffffffffffffffffffffffffffffffff1673ffffffffffffffffffffffffffffffffffffffff1683600001547f5f553115a120073eb03d935efcbd2b429dea2fed8d5896cc5d326e83fa06fbe0846004015460405161488691906153a7565b60405180910390a35b5050505b50565b8280548282559060005260206000209081019282156148de579160200282015b828111156148dd5782518290816148cd9190615fa8565b50916020019190600101906148b6565b5b5090506148eb91906149bf565b5090565b82805482825590600052602060002090810192821561492b579160200282015b8281111561492a57825182559160200191906001019061490f565b5b50905061493891906149e3565b5090565b60405180610100016040528060008152602001600073ffffffffffffffffffffffffffffffffffffffff1681526020016060815260200160608152602001600081526020016000600581111561499557614994614deb565b5b815260200160608152602001600073ffffffffffffffffffffffffffffffffffffffff1681525090565b5b808211156149df57600081816149d69190614a00565b506001016149c0565b5090565b5b808211156149fc5760008160009055506001016149e4565b5090565b508054614a0c90615bdf565b6000825580601f10614a1e5750614a3d565b601f016020900490600052602060002090810190614a3c91906149e3565b5b50565b6000604051905090565b600080fd5b600080fd5b6000819050919050565b614a6781614a54565b8114614a7257600080fd5b50565b600081359050614a8481614a5e565b92915050565b600060208284031215614aa057614a9f614a4a565b5b6000614aae84828501614a75565b91505092915050565b600073ffffffffffffffffffffffffffffffffffffffff82169050919050565b6000614ae282614ab7565b9050919050565b614af281614ad7565b8114614afd57600080fd5b50565b600081359050614b0f81614ae9565b92915050565b60008060408385031215614b2c57614b2b614a4a565b5b6000614b3a85828601614a75565b9250506020614b4b85828601614b00565b9150509250929050565b600060208284031215614b6b57614b6a614a4a565b5b6000614b7984828501614b00565b91505092915050565b600081519050919050565b600082825260208201905092915050565b60005b83811015614bbc578082015181840152602081019050614ba1565b60008484015250505050565b6000601f19601f8301169050919050565b6000614be482614b82565b614bee8185614b8d565b9350614bfe818560208601614b9e565b614c0781614bc8565b840191505092915050565b600081519050919050565b600082825260208201905092915050565b6000819050602082019050919050565b600082825260208201905092915050565b6000614c5a82614b82565b614c648185614c3e565b9350614c74818560208601614b9e565b614c7d81614bc8565b840191505092915050565b6000614c948383614c4f565b905092915050565b6000602082019050919050565b6000614cb482614c12565b614cbe8185614c1d565b935083602082028501614cd085614c2e565b8060005b85811015614d0c5784840389528151614ced8582614c88565b9450614cf883614c9c565b925060208a01995050600181019050614cd4565b50829750879550505050505092915050565b614d2781614a54565b82525050565b600081519050919050565b600082825260208201905092915050565b6000819050602082019050919050565b614d6281614a54565b82525050565b6000614d748383614d59565b60208301905092915050565b6000602082019050919050565b6000614d9882614d2d565b614da28185614d38565b9350614dad83614d49565b8060005b83811015614dde578151614dc58882614d68565b9750614dd083614d80565b925050600181019050614db1565b5085935050505092915050565b7f4e487b7100000000000000000000000000000000000000000000000000000000600052602160045260246000fd5b60028110614e2b57614e2a614deb565b5b50565b6000819050614e3c82614e1a565b919050565b6000614e4c82614e2e565b9050919050565b614e5c81614e41565b82525050565b6000610100820190508181036000830152614e7d818b614bd9565b90508181036020830152614e91818a614bd9565b90508181036040830152614ea58189614bd9565b90508181036060830152614eb98188614ca9565b90508181036080830152614ecd8187614ca9565b9050614edc60a0830186614d1e565b81810360c0830152614eee8185614d8d565b9050614efd60e0830184614e53565b9998505050505050505050565b614f1381614ad7565b82525050565b60068110614f2a57614f29614deb565b5b50565b6000819050614f3b82614f19565b919050565b6000614f4b82614f2d565b9050919050565b614f5b81614f40565b82525050565b600061010082019050614f77600083018b614d1e565b614f84602083018a614f0a565b8181036040830152614f968189614bd9565b90508181036060830152614faa8188614bd9565b9050614fb96080830187614d1e565b614fc660a0830186614f52565b81810360c0830152614fd88185614bd9565b9050614fe760e0830184614f0a565b9998505050505050505050565b60008115159050919050565b61500981614ff4565b811461501457600080fd5b50565b60008135905061502681615000565b92915050565b6000806040838503121561504357615042614a4a565b5b600061505185828601614a75565b925050602061506285828601615017565b9150509250929050565b600080fd5b600080fd5b7f4e487b7100000000000000000000000000000000000000000000000000000000600052604160045260246000fd5b6150ae82614bc8565b810181811067ffffffffffffffff821117156150cd576150cc615076565b5b80604052505050565b60006150e0614a40565b90506150ec82826150a5565b919050565b600067ffffffffffffffff82111561510c5761510b615076565b5b61511582614bc8565b9050602081019050919050565b82818337600083830152505050565b600061514461513f846150f1565b6150d6565b9050828152602081018484840111156151605761515f615071565b5b61516b848285615122565b509392505050565b600082601f8301126151885761518761506c565b5b8135615198848260208601615131565b91505092915050565b6000806000606084860312156151ba576151b9614a4a565b5b600084013567ffffffffffffffff8111156151d8576151d7614a4f565b5b6151e486828701615173565b935050602084013567ffffffffffffffff81111561520557615204614a4f565b5b61521186828701615173565b925050604061522286828701614a75565b9150509250925092565b600081519050919050565b600082825260208201905092915050565b6000819050602082019050919050565b61526181614ad7565b82525050565b60006152738383615258565b60208301905092915050565b6000602082019050919050565b60006152978261522c565b6152a18185615237565b93506152ac83615248565b8060005b838110156152dd5781516152c48882615267565b97506152cf8361527f565b9250506001810190506152b0565b5085935050505092915050565b60006020820190508181036000830152615304818461528c565b905092915050565b6000806040838503121561532357615322614a4a565b5b600061533185828601614a75565b925050602061534285828601614a75565b9150509250929050565b60006020820190506153616000830184614f0a565b92915050565b6000806040838503121561537e5761537d614a4a565b5b600061538c85828601614b00565b925050602061539d85828601614a75565b9150509250929050565b60006020820190506153bc6000830184614d1e565b92915050565b6153cb81614ff4565b82525050565b60006020820190506153e660008301846153c2565b92915050565b600061010082019050615402600083018b614d1e565b61540f602083018a614f0a565b61541c6040830189614f0a565b818103606083015261542e8188614bd9565b905061543d6080830187614d1e565b61544a60a0830186614d1e565b61545760c08301856153c2565b61546460e0830184614d1e565b9998505050505050505050565b600067ffffffffffffffff82111561548c5761548b615076565b5b602082029050602081019050919050565b600080fd5b60006154b56154b084615471565b6150d6565b905080838252602082019050602084028301858111156154d8576154d761549d565b5b835b8181101561551f57803567ffffffffffffffff8111156154fd576154fc61506c565b5b80860161550a8982615173565b855260208501945050506020810190506154da565b5050509392505050565b600082601f83011261553e5761553d61506c565b5b813561554e8482602086016154a2565b91505092915050565b600080600080600060a0868803121561557357615572614a4a565b5b600086013567ffffffffffffffff81111561559157615590614a4f565b5b61559d88828901615173565b955050602086013567ffffffffffffffff8111156155be576155bd614a4f565b5b6155ca88828901615173565b945050604086013567ffffffffffffffff8111156155eb576155ea614a4f565b5b6155f788828901615173565b935050606086013567ffffffffffffffff81111561561857615617614a4f565b5b61562488828901615529565b925050608086013567ffffffffffffffff81111561564557615644614a4f565b5b61565188828901615529565b9150509295509295909350565b6000806040838503121561567557615674614a4a565b5b600061568385828601614a75565b925050602083013567ffffffffffffffff8111156156a4576156a3614a4f565b5b6156b085828601615173565b9150509250929050565b600281106156c757600080fd5b50565b6000813590506156d9816156ba565b92915050565b6000806000606084860312156156f8576156f7614a4a565b5b6000615706868287016156ca565b935050602084013567ffffffffffffffff81111561572757615726614a4f565b5b61573386828701615173565b925050604084013567ffffffffffffffff81111561575457615753614a4f565b5b61576086828701615173565b9150509250925092565b600060c08201905061577f6000830189614f0a565b61578c6020830188614e53565b818103604083015261579e8187614bd9565b905081810360608301526157b28186614bd9565b905081810360808301526157c68185614bd9565b90506157d560a0830184614d1e565b979650505050505050565b600681106157ed57600080fd5b50565b6000813590506157ff816157e0565b92915050565b60006020828403121561581b5761581a614a4a565b5b6000615829848285016157f0565b91505092915050565b600081519050919050565b600082825260208201905092915050565b6000819050602082019050919050565b61586781614f40565b82525050565b6000610100830160008301516158866000860182614d59565b5060208301516158996020860182615258565b50604083015184820360408601526158b18282614c4f565b915050606083015184820360608601526158cb8282614c4f565b91505060808301516158e06080860182614d59565b5060a08301516158f360a086018261585e565b5060c083015184820360c086015261590b8282614c4f565b91505060e083015161592060e0860182615258565b508091505092915050565b6000615937838361586d565b905092915050565b6000602082019050919050565b600061595782615832565b615961818561583d565b9350836020820285016159738561584e565b8060005b858110156159af5784840389528151615990858261592b565b945061599b8361593f565b925060208a01995050600181019050615977565b50829750879550505050505092915050565b600060208201905081810360008301526159db818461594c565b905092915050565b7f4e487b7100000000000000000000000000000000000000000000000000000000600052601160045260246000fd5b6000615a1d82614a54565b9150615a2883614a54565b9250828201905080821115615a4057615a3f6159e3565b5b92915050565b7f4f6e6c7920636c69656e742063616e20706572666f726d20746869732061637460008201527f696f6e0000000000000000000000000000000000000000000000000000000000602082015250565b6000615aa2602383614b8d565b9150615aad82615a46565b604082019050919050565b60006020820190508181036000830152615ad181615a95565b9050919050565b7f50726f6a656374206973206e6f74206163746976650000000000000000000000600082015250565b6000615b0e601583614b8d565b9150615b1982615ad8565b602082019050919050565b60006020820190508181036000830152615b3d81615b01565b9050919050565b7f55736572206e6f74207265676973746572656400000000000000000000000000600082015250565b6000615b7a601383614b8d565b9150615b8582615b44565b602082019050919050565b60006020820190508181036000830152615ba981615b6d565b9050919050565b7f4e487b7100000000000000000000000000000000000000000000000000000000600052602260045260246000fd5b60006002820490506001821680615bf757607f821691505b602082108103615c0a57615c09615bb0565b5b50919050565b7f4469737075746520616c7265616479207265736f6c7665640000000000000000600082015250565b6000615c46601883614b8d565b9150615c5182615c10565b602082019050919050565b60006020820190508181036000830152615c7581615c39565b9050919050565b7f416c726561647920766f74656400000000000000000000000000000000000000600082015250565b6000615cb2600d83614b8d565b9150615cbd82615c7c565b602082019050919050565b60006020820190508181036000830152615ce181615ca5565b9050919050565b7f4e487b7100000000000000000000000000000000000000000000000000000000600052601260045260246000fd5b6000615d2282614a54565b9150615d2d83614a54565b925082615d3d57615d3c615ce8565b5b828204905092915050565b7f4f6e6c7920636c69656e74732063616e206372656174652070726f6a65637473600082015250565b6000615d7e602083614b8d565b9150615d8982615d48565b602082019050919050565b60006020820190508181036000830152615dad81615d71565b9050919050565b6000615dbf82614a54565b91507fffffffffffffffffffffffffffffffffffffffffffffffffffffffffffffffff8203615df157615df06159e3565b5b600182019050919050565b60008190508160005260206000209050919050565b60006020601f8301049050919050565b600082821b905092915050565b600060088302615e5e7fffffffffffffffffffffffffffffffffffffffffffffffffffffffffffffffff82615e21565b615e688683615e21565b95508019841693508086168417925050509392505050565b6000819050919050565b6000615ea5615ea0615e9b84614a54565b615e80565b614a54565b9050919050565b6000819050919050565b615ebf83615e8a565b615ed3615ecb82615eac565b848454615e2e565b825550505050565b600090565b615ee8615edb565b615ef3818484615eb6565b505050565b5b81811015615f1757615f0c600082615ee0565b600181019050615ef9565b5050565b601f821115615f5c57615f2d81615dfc565b615f3684615e11565b81016020851015615f45578190505b615f59615f5185615e11565b830182615ef8565b50505b505050565b600082821c905092915050565b6000615f7f60001984600802615f61565b1980831691505092915050565b6000615f988383615f6e565b9150826002028217905092915050565b615fb182614b82565b67ffffffffffffffff811115615fca57615fc9615076565b5b615fd48254615bdf565b615fdf828285615f1b565b600060209050601f8311600181146160125760008415616000578287015190505b61600a8582615f8c565b865550616072565b601f19841661602086615dfc565b60005b8281101561604857848901518255600182019150602085019450602081019050616023565b868310156160655784890151616061601f891682615f6e565b8355505b6001600288020188555050505b505050505050565b7f4f6e6c7920667265656c616e636572732063616e206170706c79000000000000600082015250565b60006160b0601a83614b8d565b91506160bb8261607a565b602082019050919050565b600060208201905081810360008301526160df816160a3565b9050919050565b7f4e487b7100000000000000000000000000000000000000000000000000000000600052603260045260246000fd5b7f467265656c616e63657220616c7265616479206170706c696564000000000000600082015250565b600061614b601a83614b8d565b915061615682616115565b602082019050919050565b6000602082019050818103600083015261617a8161613e565b9050919050565b7f50726f6a656374206973206e6f74206f6e676f696e6700000000000000000000600082015250565b60006161b7601683614b8d565b91506161c282616181565b602082019050919050565b600060208201905081810360008301526161e6816161aa565b9050919050565b7f496e636f727265637420616d6f756e742073656e740000000000000000000000600082015250565b6000616223601583614b8d565b915061622e826161ed565b602082019050919050565b6000602082019050818103600083015261625281616216565b9050919050565b7f50726f6a656374206d757374206265206f6e676f696e67206f72206d61726b6560008201527f6420617320646f6e6520627920667265656c616e636572000000000000000000602082015250565b60006162b5603783614b8d565b91506162c082616259565b604082019050919050565b600060208201905081810360008301526162e4816162a8565b9050919050565b7f4f6e6c7920636c69656e74206f7220667265656c616e6365722063616e20726160008201527f6973652064697370757465000000000000000000000000000000000000000000602082015250565b6000616347602b83614b8d565b9150616352826162eb565b604082019050919050565b600060208201905081810360008301526163768161633a565b9050919050565b7f5573657220616c72656164792072656769737465726564000000000000000000600082015250565b60006163b3601783614b8d565b91506163be8261637d565b602082019050919050565b600060208201905081810360008301526163e2816163a6565b9050919050565b60006020820190506163fe6000830184614e53565b92915050565b7f50726f6a656374206973206e6f7420696e20617070726f7661626c652073746160008201527f7465000000000000000000000000000000000000000000000000000000000000602082015250565b6000616460602283614b8d565b915061646b82616404565b604082019050919050565b6000602082019050818103600083015261648f81616453565b9050919050565b60006164a182614a54565b91506164ac83614a54565b92508282039050818111156164c4576164c36159e3565b5b92915050565b7f50726f6a656374206e6f7420696e2066696e616c207374617465000000000000600082015250565b6000616500601a83614b8d565b915061650b826164ca565b602082019050919050565b6000602082019050818103600083015261652f816164f3565b9050919050565b7f4f6e6c7920667265656c616e6365722063616e20706572666f726d207468697360008201527f20616374696f6e00000000000000000000000000000000000000000000000000602082015250565b6000616592602783614b8d565b915061659d82616536565b604082019050919050565b600060208201905081810360008301526165c181616585565b905091905056fea26469706673582212205a28d0b35aaa629955b26a8e37b271c77c85d96637f7cbe16a6832973b4f16ad64736f6c63430008130033",
  "linkReferences": {},
  "deployedLinkReferences": {}
}