{
  "_format": "hh-sol-artifact-1",
  "contractName": "DecentralizedFreelanceMarket",
  "sourceName": "contracts/DecentralizedFreelanceMarket.sol",
  "abi": [
    {
      "inputs": [
        {
          "internalType": "uint256",
          "name": "projectId",
          "type": "uint256"
        },
        {
          "internalType": "address",
          "name": "_freelancer",
          "type": "address"
        }
      ],
      "name": "acceptProjectRequest",
      "outputs": [],
      "stateMutability": "nonpayable",
      "type": "function"
    },
    {
      "inputs": [
        {
          "internalType": "uint256",
          "name": "projectId",
          "type": "uint256"
        }
      ],
      "name": "applyProject",
      "outputs": [],
      "stateMutability": "nonpayable",
      "type": "function"
    },
    {
      "inputs": [
        {
          "internalType": "string",
          "name": "title",
          "type": "string"
        },
        {
          "internalType": "string",
          "name": "description",
          "type": "string"
        },
        {
          "internalType": "uint256",
          "name": "budget",
          "type": "uint256"
        }
      ],
      "name": "createProject",
      "outputs": [],
      "stateMutability": "nonpayable",
      "type": "function"
    },
    {
      "anonymous": false,
      "inputs": [
        {
          "indexed": true,
          "internalType": "uint256",
          "name": "disputeId",
          "type": "uint256"
        },
        {
          "indexed": true,
          "internalType": "uint256",
          "name": "projectId",
          "type": "uint256"
        }
      ],
      "name": "DisputeRaised",
      "type": "event"
    },
    {
      "anonymous": false,
      "inputs": [
        {
          "indexed": true,
          "internalType": "uint256",
          "name": "disputeId",
          "type": "uint256"
        },
        {
          "indexed": false,
          "internalType": "bool",
          "name": "clientWins",
          "type": "bool"
        }
      ],
      "name": "DisputeResolved",
      "type": "event"
    },
    {
      "anonymous": false,
      "inputs": [
        {
          "indexed": true,
          "internalType": "uint256",
          "name": "disputeId",
          "type": "uint256"
        },
        {
          "indexed": true,
          "internalType": "address",
          "name": "voter",
          "type": "address"
        },
        {
          "indexed": false,
          "internalType": "bool",
          "name": "vote",
          "type": "bool"
        }
      ],
      "name": "DisputeVoted",
      "type": "event"
    },
    {
      "anonymous": false,
      "inputs": [
        {
          "indexed": true,
          "internalType": "uint256",
          "name": "projectId",
          "type": "uint256"
        },
        {
          "indexed": true,
          "internalType": "address",
          "name": "recipient",
          "type": "address"
        },
        {
          "indexed": false,
          "internalType": "uint256",
          "name": "amount",
          "type": "uint256"
        }
      ],
      "name": "FundsTransferredFromEscrow",
      "type": "event"
    },
    {
      "anonymous": false,
      "inputs": [
        {
          "indexed": true,
          "internalType": "uint256",
          "name": "projectId",
          "type": "uint256"
        },
        {
          "indexed": false,
          "internalType": "uint256",
          "name": "amount",
          "type": "uint256"
        }
      ],
      "name": "FundsTransferredToEscrow",
      "type": "event"
    },
    {
      "anonymous": false,
      "inputs": [
        {
          "indexed": true,
          "internalType": "address",
          "name": "wallet",
          "type": "address"
        }
      ],
      "name": "ProfileUpdated",
      "type": "event"
    },
    {
      "anonymous": false,
      "inputs": [
        {
          "indexed": true,
          "internalType": "uint256",
          "name": "projectId",
          "type": "uint256"
        },
        {
          "indexed": true,
          "internalType": "address",
          "name": "freelancer",
          "type": "address"
        }
      ],
      "name": "ProjectAccepted",
      "type": "event"
    },
    {
      "anonymous": false,
      "inputs": [
        {
          "indexed": true,
          "internalType": "uint256",
          "name": "projectId",
          "type": "uint256"
        },
        {
          "indexed": true,
          "internalType": "address",
          "name": "freelancer",
          "type": "address"
        }
      ],
      "name": "ProjectApplied",
      "type": "event"
    },
    {
      "inputs": [
        {
          "internalType": "uint256",
          "name": "projectId",
          "type": "uint256"
        },
        {
          "internalType": "uint256",
          "name": "rating",
          "type": "uint256"
        }
      ],
      "name": "projectApprove",
      "outputs": [],
      "stateMutability": "nonpayable",
      "type": "function"
    },
    {
      "anonymous": false,
      "inputs": [
        {
          "indexed": true,
          "internalType": "uint256",
          "name": "projectId",
          "type": "uint256"
        }
      ],
      "name": "ProjectApproved",
      "type": "event"
    },
    {
      "anonymous": false,
      "inputs": [
        {
          "indexed": true,
          "internalType": "uint256",
          "name": "projectId",
          "type": "uint256"
        }
      ],
      "name": "ProjectCompleted",
      "type": "event"
    },
    {
      "anonymous": false,
      "inputs": [
        {
          "indexed": true,
          "internalType": "uint256",
          "name": "projectId",
          "type": "uint256"
        },
        {
          "indexed": true,
          "internalType": "address",
          "name": "client",
          "type": "address"
        }
      ],
      "name": "ProjectCreated",
      "type": "event"
    },
    {
      "inputs": [
        {
          "internalType": "uint256",
          "name": "projectId",
          "type": "uint256"
        },
        {
          "internalType": "string",
          "name": "cid",
          "type": "string"
        }
      ],
      "name": "projectDone",
      "outputs": [],
      "stateMutability": "nonpayable",
      "type": "function"
    },
    {
      "inputs": [
        {
          "internalType": "uint256",
          "name": "projectId",
          "type": "uint256"
        },
        {
          "internalType": "string",
          "name": "explanation",
          "type": "string"
        }
      ],
      "name": "raiseDispute",
      "outputs": [],
      "stateMutability": "nonpayable",
      "type": "function"
    },
    {
      "inputs": [
        {
          "internalType": "enum DecentralizedFreelanceMarket.UserType",
          "name": "userType",
          "type": "uint8"
        },
        {
          "internalType": "string",
          "name": "name",
          "type": "string"
        },
        {
          "internalType": "string",
          "name": "email",
          "type": "string"
        }
      ],
      "name": "registerUser",
      "outputs": [],
      "stateMutability": "nonpayable",
      "type": "function"
    },
    {
      "inputs": [
        {
          "internalType": "uint256",
          "name": "disputeId",
          "type": "uint256"
        }
      ],
      "name": "resolveDispute",
      "outputs": [],
      "stateMutability": "nonpayable",
      "type": "function"
    },
    {
      "inputs": [
        {
          "internalType": "uint256",
          "name": "projectId",
          "type": "uint256"
        }
      ],
      "name": "transferFromEscrow",
      "outputs": [],
      "stateMutability": "nonpayable",
      "type": "function"
    },
    {
      "inputs": [
        {
          "internalType": "uint256",
          "name": "projectId",
          "type": "uint256"
        }
      ],
      "name": "transferToEscrow",
      "outputs": [],
      "stateMutability": "payable",
      "type": "function"
    },
    {
      "inputs": [
        {
          "internalType": "string",
          "name": "name",
          "type": "string"
        },
        {
          "internalType": "string",
          "name": "description",
          "type": "string"
        },
        {
          "internalType": "string",
          "name": "email",
          "type": "string"
        },
        {
          "internalType": "string[]",
          "name": "skills",
          "type": "string[]"
        },
        {
          "internalType": "string[]",
          "name": "documents",
          "type": "string[]"
        }
      ],
      "name": "updateProfile",
      "outputs": [],
      "stateMutability": "nonpayable",
      "type": "function"
    },
    {
      "anonymous": false,
      "inputs": [
        {
          "indexed": true,
          "internalType": "address",
          "name": "wallet",
          "type": "address"
        },
        {
          "indexed": false,
          "internalType": "enum DecentralizedFreelanceMarket.UserType",
          "name": "userType",
          "type": "uint8"
        }
      ],
      "name": "UserRegistered",
      "type": "event"
    },
    {
      "inputs": [
        {
          "internalType": "uint256",
          "name": "disputeId",
          "type": "uint256"
        },
        {
          "internalType": "bool",
          "name": "vote",
          "type": "bool"
        }
      ],
      "name": "voteDispute",
      "outputs": [],
      "stateMutability": "nonpayable",
      "type": "function"
    },
    {
      "inputs": [
        {
          "internalType": "uint256",
          "name": "",
          "type": "uint256"
        },
        {
          "internalType": "uint256",
          "name": "",
          "type": "uint256"
        }
      ],
      "name": "Applied",
      "outputs": [
        {
          "internalType": "address",
          "name": "",
          "type": "address"
        }
      ],
      "stateMutability": "view",
      "type": "function"
    },
    {
      "inputs": [
        {
          "internalType": "address",
          "name": "",
          "type": "address"
        },
        {
          "internalType": "uint256",
          "name": "",
          "type": "uint256"
        }
      ],
      "name": "clientProjects",
      "outputs": [
        {
          "internalType": "uint256",
          "name": "",
          "type": "uint256"
        }
      ],
      "stateMutability": "view",
      "type": "function"
    },
    {
      "inputs": [],
      "name": "disputeCounter",
      "outputs": [
        {
          "internalType": "uint256",
          "name": "",
          "type": "uint256"
        }
      ],
      "stateMutability": "view",
      "type": "function"
    },
    {
      "inputs": [
        {
          "internalType": "uint256",
          "name": "",
          "type": "uint256"
        }
      ],
      "name": "disputes",
      "outputs": [
        {
          "internalType": "uint256",
          "name": "projectId",
          "type": "uint256"
        },
        {
          "internalType": "address",
          "name": "raisedBy",
          "type": "address"
        },
        {
          "internalType": "address",
          "name": "raisedAgainst",
          "type": "address"
        },
        {
          "internalType": "string",
          "name": "explanation",
          "type": "string"
        },
        {
          "internalType": "uint256",
          "name": "votesFor",
          "type": "uint256"
        },
        {
          "internalType": "uint256",
          "name": "votesAgainst",
          "type": "uint256"
        },
        {
          "internalType": "bool",
          "name": "resolved",
          "type": "bool"
        }
      ],
      "stateMutability": "view",
      "type": "function"
    },
    {
      "inputs": [
        {
          "internalType": "address",
          "name": "",
          "type": "address"
        },
        {
          "internalType": "uint256",
          "name": "",
          "type": "uint256"
        }
      ],
      "name": "freelancerProjects",
      "outputs": [
        {
          "internalType": "uint256",
          "name": "",
          "type": "uint256"
        }
      ],
      "stateMutability": "view",
      "type": "function"
    },
    {
      "inputs": [
        {
          "internalType": "enum DecentralizedFreelanceMarket.ProjectStatus",
          "name": "status",
          "type": "uint8"
        }
      ],
      "name": "getClientProjectsByStatus",
      "outputs": [
        {
          "components": [
            {
              "internalType": "uint256",
              "name": "id",
              "type": "uint256"
            },
            {
              "internalType": "address",
              "name": "client",
              "type": "address"
            },
            {
              "internalType": "string",
              "name": "title",
              "type": "string"
            },
            {
              "internalType": "string",
              "name": "description",
              "type": "string"
            },
            {
              "internalType": "uint256",
              "name": "budget",
              "type": "uint256"
            },
            {
              "internalType": "enum DecentralizedFreelanceMarket.ProjectStatus",
              "name": "status",
              "type": "uint8"
            },
            {
              "internalType": "string",
              "name": "demo",
              "type": "string"
            },
            {
              "internalType": "address",
              "name": "freelancer",
              "type": "address"
            }
          ],
          "internalType": "struct DecentralizedFreelanceMarket.Project[]",
          "name": "",
          "type": "tuple[]"
        }
      ],
      "stateMutability": "view",
      "type": "function"
    },
    {
      "inputs": [
        {
          "internalType": "enum DecentralizedFreelanceMarket.ProjectStatus",
          "name": "status",
          "type": "uint8"
        }
      ],
      "name": "getFreelancerProjectsByStatus",
      "outputs": [
        {
          "components": [
            {
              "internalType": "uint256",
              "name": "id",
              "type": "uint256"
            },
            {
              "internalType": "address",
              "name": "client",
              "type": "address"
            },
            {
              "internalType": "string",
              "name": "title",
              "type": "string"
            },
            {
              "internalType": "string",
              "name": "description",
              "type": "string"
            },
            {
              "internalType": "uint256",
              "name": "budget",
              "type": "uint256"
            },
            {
              "internalType": "enum DecentralizedFreelanceMarket.ProjectStatus",
              "name": "status",
              "type": "uint8"
            },
            {
              "internalType": "string",
              "name": "demo",
              "type": "string"
            },
            {
              "internalType": "address",
              "name": "freelancer",
              "type": "address"
            }
          ],
          "internalType": "struct DecentralizedFreelanceMarket.Project[]",
          "name": "",
          "type": "tuple[]"
        }
      ],
      "stateMutability": "view",
      "type": "function"
    },
    {
      "inputs": [],
      "name": "getProfile",
      "outputs": [
        {
          "internalType": "string",
          "name": "name",
          "type": "string"
        },
        {
          "internalType": "string",
          "name": "description",
          "type": "string"
        },
        {
          "internalType": "string",
          "name": "email",
          "type": "string"
        },
        {
          "internalType": "string[]",
          "name": "skills",
          "type": "string[]"
        },
        {
          "internalType": "string[]",
          "name": "documents",
          "type": "string[]"
        },
        {
          "internalType": "uint256",
          "name": "credits",
          "type": "uint256"
        },
        {
          "internalType": "uint256[]",
          "name": "reviews",
          "type": "uint256[]"
        },
        {
          "internalType": "enum DecentralizedFreelanceMarket.UserType",
          "name": "userType",
          "type": "uint8"
        }
      ],
      "stateMutability": "view",
      "type": "function"
    },
    {
      "inputs": [
        {
          "internalType": "uint256",
          "name": "",
          "type": "uint256"
        },
        {
          "internalType": "address",
          "name": "",
          "type": "address"
        }
      ],
      "name": "hasVoted",
      "outputs": [
        {
          "internalType": "bool",
          "name": "",
          "type": "bool"
        }
      ],
      "stateMutability": "view",
      "type": "function"
    },
    {
      "inputs": [],
      "name": "projectCounter",
      "outputs": [
        {
          "internalType": "uint256",
          "name": "",
          "type": "uint256"
        }
      ],
      "stateMutability": "view",
      "type": "function"
    },
    {
      "inputs": [
        {
          "internalType": "uint256",
          "name": "",
          "type": "uint256"
        }
      ],
      "name": "projects",
      "outputs": [
        {
          "internalType": "uint256",
          "name": "id",
          "type": "uint256"
        },
        {
          "internalType": "address",
          "name": "client",
          "type": "address"
        },
        {
          "internalType": "string",
          "name": "title",
          "type": "string"
        },
        {
          "internalType": "string",
          "name": "description",
          "type": "string"
        },
        {
          "internalType": "uint256",
          "name": "budget",
          "type": "uint256"
        },
        {
          "internalType": "enum DecentralizedFreelanceMarket.ProjectStatus",
          "name": "status",
          "type": "uint8"
        },
        {
          "internalType": "string",
          "name": "demo",
          "type": "string"
        },
        {
          "internalType": "address",
          "name": "freelancer",
          "type": "address"
        }
      ],
      "stateMutability": "view",
      "type": "function"
    },
    {
      "inputs": [
        {
          "internalType": "address",
          "name": "",
          "type": "address"
        }
      ],
      "name": "users",
      "outputs": [
        {
          "internalType": "address",
          "name": "wallet",
          "type": "address"
        },
        {
          "internalType": "enum DecentralizedFreelanceMarket.UserType",
          "name": "userType",
          "type": "uint8"
        },
        {
          "internalType": "string",
          "name": "name",
          "type": "string"
        },
        {
          "internalType": "string",
          "name": "description",
          "type": "string"
        },
        {
          "internalType": "string",
          "name": "email",
          "type": "string"
        },
        {
          "internalType": "uint256",
          "name": "credits",
          "type": "uint256"
        }
      ],
      "stateMutability": "view",
      "type": "function"
    }
  ],
  "bytecode": "0x6080604052348015600f57600080fd5b50615c888061001f6000396000f3fe60806040526004361061014b5760003560e01c80637d36f4d3116100b6578063c2b7b8681161006f578063c2b7b868146104c5578063d51d5006146104ee578063d5fe51b01461052b578063d6afc9b114610554578063f8a518ed14610586578063fa3668a8146105b15761014b565b80637d36f4d3146103a05780639a772079146103cb578063a0ecde6e146103f4578063a87430ba1461041d578063afba3d681461045f578063b337803c1461049c5761014b565b8063431f25c911610108578063431f25c91461028957806343859632146102b2578063564a565d146102ef578063569c67ec146103325780635a15e5671461034e5780635aef573c146103775761014b565b8063038b4cb914610150578063107046bd146101795780631977be63146101bd57806323c55448146101e65780633b006b021461020f578063427583a21461024c575b600080fd5b34801561015c57600080fd5b50610177600480360381019061017291906143aa565b6105ee565b005b34801561018557600080fd5b506101a0600480360381019061019b91906143ea565b610861565b6040516101b498979695949392919061453c565b60405180910390f35b3480156101c957600080fd5b506101e460048036038101906101df9190614607565b610a8e565b005b3480156101f257600080fd5b5061020d6004803603810190610208919061477c565b610dd5565b005b34801561021b57600080fd5b5061023660048036038101906102319190614807565b6111db565b6040516102439190614847565b60405180910390f35b34801561025857600080fd5b50610273600480360381019061026e9190614862565b611229565b60405161028091906148a2565b60405180910390f35b34801561029557600080fd5b506102b060048036038101906102ab91906143ea565b61125a565b005b3480156102be57600080fd5b506102d960048036038101906102d491906143aa565b611612565b6040516102e691906148cc565b60405180910390f35b3480156102fb57600080fd5b50610316600480360381019061031191906143ea565b611641565b60405161032997969594939291906148e7565b60405180910390f35b61034c600480360381019061034791906143ea565b611758565b005b34801561035a57600080fd5b5061037560048036038101906103709190614a43565b61191d565b005b34801561038357600080fd5b5061039e60048036038101906103999190614b4a565b611b20565b005b3480156103ac57600080fd5b506103b5611f81565b6040516103c291906148a2565b60405180910390f35b3480156103d757600080fd5b506103f260048036038101906103ed9190614bcb565b611f87565b005b34801561040057600080fd5b5061041b60048036038101906104169190614807565b612363565b005b34801561042957600080fd5b50610444600480360381019061043f9190614c56565b6126c1565b60405161045696959493929190614ccb565b60405180910390f35b34801561046b57600080fd5b5061048660048036038101906104819190614862565b6128c2565b60405161049391906148a2565b60405180910390f35b3480156104a857600080fd5b506104c360048036038101906104be91906143ea565b6128f3565b005b3480156104d157600080fd5b506104ec60048036038101906104e791906143ea565b612bd5565b005b3480156104fa57600080fd5b5061051560048036038101906105109190614d66565b6130bf565b6040516105229190614f8a565b60405180910390f35b34801561053757600080fd5b50610552600480360381019061054d9190614b4a565b6135a3565b005b34801561056057600080fd5b50610569613769565b60405161057d98979695949392919061511d565b60405180910390f35b34801561059257600080fd5b5061059b613c6e565b6040516105a891906148a2565b60405180910390f35b3480156105bd57600080fd5b506105d860048036038101906105d39190614d66565b613c74565b6040516105e59190614f8a565b60405180910390f35b813373ffffffffffffffffffffffffffffffffffffffff166001600083815260200190815260200160002060010160009054906101000a900473ffffffffffffffffffffffffffffffffffffffff1673ffffffffffffffffffffffffffffffffffffffff1614610693576040517f08c379a000000000000000000000000000000000000000000000000000000000815260040161068a90615237565b60405180910390fd5b82600060058111156106a8576106a76144c5565b5b6001600083815260200190815260200160002060050160009054906101000a900460ff1660058111156106de576106dd6144c5565b5b1461071e576040517f08c379a0000000000000000000000000000000000000000000000000000000008152600401610715906152a3565b60405180910390fd5b826001600086815260200190815260200160002060070160006101000a81548173ffffffffffffffffffffffffffffffffffffffff021916908373ffffffffffffffffffffffffffffffffffffffff160217905550600180600086815260200190815260200160002060050160006101000a81548160ff021916908360058111156107ac576107ab6144c5565b5b0217905550600660008473ffffffffffffffffffffffffffffffffffffffff1673ffffffffffffffffffffffffffffffffffffffff1681526020019081526020016000208490806001815401808255809150506001900390600052602060002001600090919091909150558273ffffffffffffffffffffffffffffffffffffffff16847f3afbe557720c657b357055519b7971ffa35cd23fd38a67024de49537d7b20e4060405160405180910390a350505050565b60016020528060005260406000206000915090508060000154908060010160009054906101000a900473ffffffffffffffffffffffffffffffffffffffff16908060020180546108b0906152f2565b80601f01602080910402602001604051908101604052809291908181526020018280546108dc906152f2565b80156109295780601f106108fe57610100808354040283529160200191610929565b820191906000526020600020905b81548152906001019060200180831161090c57829003601f168201915b50505050509080600301805461093e906152f2565b80601f016020809104026020016040519081016040528092919081815260200182805461096a906152f2565b80156109b75780601f1061098c576101008083540402835291602001916109b7565b820191906000526020600020905b81548152906001019060200180831161099a57829003601f168201915b5050505050908060040154908060050160009054906101000a900460ff16908060060180546109e5906152f2565b80601f0160208091040260200160405190810160405280929190818152602001828054610a11906152f2565b8015610a5e5780601f10610a3357610100808354040283529160200191610a5e565b820191906000526020600020905b815481529060010190602001808311610a4157829003601f168201915b5050505050908060070160009054906101000a900473ffffffffffffffffffffffffffffffffffffffff16905088565b600073ffffffffffffffffffffffffffffffffffffffff166000803373ffffffffffffffffffffffffffffffffffffffff1673ffffffffffffffffffffffffffffffffffffffff16815260200190815260200160002060000160009054906101000a900473ffffffffffffffffffffffffffffffffffffffff1673ffffffffffffffffffffffffffffffffffffffff1603610b5e576040517f08c379a0000000000000000000000000000000000000000000000000000000008152600401610b559061536f565b60405180910390fd5b6002600083815260200190815260200160002060060160009054906101000a900460ff1615610bc2576040517f08c379a0000000000000000000000000000000000000000000000000000000008152600401610bb9906153db565b60405180910390fd5b6004600083815260200190815260200160002060003373ffffffffffffffffffffffffffffffffffffffff1673ffffffffffffffffffffffffffffffffffffffff16815260200190815260200160002060009054906101000a900460ff1615610c60576040517f08c379a0000000000000000000000000000000000000000000000000000000008152600401610c5790615447565b60405180910390fd5b6000600a6000803373ffffffffffffffffffffffffffffffffffffffff1673ffffffffffffffffffffffffffffffffffffffff16815260200190815260200160002060040154610cb091906154c5565b90508115610cea5780600260008581526020019081526020016000206004016000828254610cde91906154f6565b92505081905550610d18565b80600260008581526020019081526020016000206005016000828254610d1091906154f6565b925050819055505b60016004600085815260200190815260200160002060003373ffffffffffffffffffffffffffffffffffffffff1673ffffffffffffffffffffffffffffffffffffffff16815260200190815260200160002060006101000a81548160ff0219169083151502179055503373ffffffffffffffffffffffffffffffffffffffff16837f910296c2d7f214e2d62a9c4e6e403cc9c5ac4585d96830dbf018e51c75fd082684604051610dc891906148cc565b60405180910390a3505050565b600073ffffffffffffffffffffffffffffffffffffffff166000803373ffffffffffffffffffffffffffffffffffffffff1673ffffffffffffffffffffffffffffffffffffffff16815260200190815260200160002060000160009054906101000a900473ffffffffffffffffffffffffffffffffffffffff1673ffffffffffffffffffffffffffffffffffffffff1603610ea5576040517f08c379a0000000000000000000000000000000000000000000000000000000008152600401610e9c9061536f565b60405180910390fd5b600180811115610eb857610eb76144c5565b5b6000803373ffffffffffffffffffffffffffffffffffffffff1673ffffffffffffffffffffffffffffffffffffffff16815260200190815260200160002060000160149054906101000a900460ff166001811115610f1957610f186144c5565b5b14610f59576040517f08c379a0000000000000000000000000000000000000000000000000000000008152600401610f5090615576565b60405180910390fd5b60076000815480929190610f6c90615596565b919050555060405180610100016040528060075481526020013373ffffffffffffffffffffffffffffffffffffffff16815260200184815260200183815260200182815260200160006005811115610fc757610fc66144c5565b5b8152602001604051806020016040528060008152508152602001600073ffffffffffffffffffffffffffffffffffffffff168152506001600060075481526020019081526020016000206000820151816000015560208201518160010160006101000a81548173ffffffffffffffffffffffffffffffffffffffff021916908373ffffffffffffffffffffffffffffffffffffffff1602179055506040820151816002019081611077919061578a565b50606082015181600301908161108d919061578a565b506080820151816004015560a08201518160050160006101000a81548160ff021916908360058111156110c3576110c26144c5565b5b021790555060c08201518160060190816110dd919061578a565b5060e08201518160070160006101000a81548173ffffffffffffffffffffffffffffffffffffffff021916908373ffffffffffffffffffffffffffffffffffffffff160217905550905050600560003373ffffffffffffffffffffffffffffffffffffffff1673ffffffffffffffffffffffffffffffffffffffff16815260200190815260200160002060075490806001815401808255809150506001900390600052602060002001600090919091909150553373ffffffffffffffffffffffffffffffffffffffff166007547f63c92f9505d420bff631cb9df33be952bdc11e2118da36a850b43e6bcc4ce4de60405160405180910390a3505050565b600360205281600052604060002081815481106111f757600080fd5b906000526020600020016000915091509054906101000a900473ffffffffffffffffffffffffffffffffffffffff1681565b6005602052816000526040600020818154811061124557600080fd5b90600052602060002001600091509150505481565b600073ffffffffffffffffffffffffffffffffffffffff166000803373ffffffffffffffffffffffffffffffffffffffff1673ffffffffffffffffffffffffffffffffffffffff16815260200190815260200160002060000160009054906101000a900473ffffffffffffffffffffffffffffffffffffffff1673ffffffffffffffffffffffffffffffffffffffff160361132a576040517f08c379a00000000000000000000000000000000000000000000000000000000081526004016113219061536f565b60405180910390fd5b806000600581111561133f5761133e6144c5565b5b6001600083815260200190815260200160002060050160009054906101000a900460ff166005811115611375576113746144c5565b5b146113b5576040517f08c379a00000000000000000000000000000000000000000000000000000000081526004016113ac906152a3565b60405180910390fd5b600060018111156113c9576113c86144c5565b5b6000803373ffffffffffffffffffffffffffffffffffffffff1673ffffffffffffffffffffffffffffffffffffffff16815260200190815260200160002060000160149054906101000a900460ff16600181111561142a576114296144c5565b5b1461146a576040517f08c379a0000000000000000000000000000000000000000000000000000000008152600401611461906158a8565b60405180910390fd5b60005b6003600084815260200190815260200160002080549050811015611555573373ffffffffffffffffffffffffffffffffffffffff166003600085815260200190815260200160002082815481106114c7576114c66158c8565b5b9060005260206000200160009054906101000a900473ffffffffffffffffffffffffffffffffffffffff1673ffffffffffffffffffffffffffffffffffffffff1603611548576040517f08c379a000000000000000000000000000000000000000000000000000000000815260040161153f90615943565b60405180910390fd5b808060010191505061146d565b5060036000838152602001908152602001600020339080600181540180825580915050600190039060005260206000200160009091909190916101000a81548173ffffffffffffffffffffffffffffffffffffffff021916908373ffffffffffffffffffffffffffffffffffffffff1602179055503373ffffffffffffffffffffffffffffffffffffffff16827fc943d53c44d2490fc5c2ea5a2bb6e803ddcd8d204be29190f94dda267f19c2c660405160405180910390a35050565b60046020528160005260406000206020528060005260406000206000915091509054906101000a900460ff1681565b60026020528060005260406000206000915090508060000154908060010160009054906101000a900473ffffffffffffffffffffffffffffffffffffffff16908060020160009054906101000a900473ffffffffffffffffffffffffffffffffffffffff16908060030180546116b6906152f2565b80601f01602080910402602001604051908101604052809291908181526020018280546116e2906152f2565b801561172f5780601f106117045761010080835404028352916020019161172f565b820191906000526020600020905b81548152906001019060200180831161171257829003601f168201915b5050505050908060040154908060050154908060060160009054906101000a900460ff16905087565b803373ffffffffffffffffffffffffffffffffffffffff166001600083815260200190815260200160002060010160009054906101000a900473ffffffffffffffffffffffffffffffffffffffff1673ffffffffffffffffffffffffffffffffffffffff16146117fd576040517f08c379a00000000000000000000000000000000000000000000000000000000081526004016117f490615237565b60405180910390fd5b8160016005811115611812576118116144c5565b5b6001600083815260200190815260200160002060050160009054906101000a900460ff166005811115611848576118476144c5565b5b14611888576040517f08c379a000000000000000000000000000000000000000000000000000000000815260040161187f906159af565b60405180910390fd5b600160008481526020019081526020016000206004015434146118e0576040517f08c379a00000000000000000000000000000000000000000000000000000000081526004016118d790615a1b565b60405180910390fd5b827f9aa35a5f090fd5c6509ac753eede56227b07113381490102030e41695add80823460405161191091906148a2565b60405180910390a2505050565b600073ffffffffffffffffffffffffffffffffffffffff166000803373ffffffffffffffffffffffffffffffffffffffff1673ffffffffffffffffffffffffffffffffffffffff16815260200190815260200160002060000160009054906101000a900473ffffffffffffffffffffffffffffffffffffffff1673ffffffffffffffffffffffffffffffffffffffff16036119ed576040517f08c379a00000000000000000000000000000000000000000000000000000000081526004016119e49061536f565b60405180910390fd5b60008060003373ffffffffffffffffffffffffffffffffffffffff1673ffffffffffffffffffffffffffffffffffffffff168152602001908152602001600020905085816001019081611a40919061578a565b5084816002019081611a52919061578a565b5083816003019081611a64919061578a565b5060006001811115611a7957611a786144c5565b5b8160000160149054906101000a900460ff166001811115611a9d57611a9c6144c5565b5b03611ad55782816005019080519060200190611aba929190614158565b5081816006019080519060200190611ad3929190614158565b505b3373ffffffffffffffffffffffffffffffffffffffff167fbe4ec58a792f909e102ee3d745d0c3b34a4d437a54d903c4db098d31c556422f60405160405180910390a2505050505050565b8160016005811115611b3557611b346144c5565b5b6001600083815260200190815260200160002060050160009054906101000a900460ff166005811115611b6b57611b6a6144c5565b5b14611bab576040517f08c379a0000000000000000000000000000000000000000000000000000000008152600401611ba2906159af565b60405180910390fd5b3373ffffffffffffffffffffffffffffffffffffffff166001600085815260200190815260200160002060010160009054906101000a900473ffffffffffffffffffffffffffffffffffffffff1673ffffffffffffffffffffffffffffffffffffffff161480611c7c57503373ffffffffffffffffffffffffffffffffffffffff166001600085815260200190815260200160002060070160009054906101000a900473ffffffffffffffffffffffffffffffffffffffff1673ffffffffffffffffffffffffffffffffffffffff16145b611cbb576040517f08c379a0000000000000000000000000000000000000000000000000000000008152600401611cb290615aad565b60405180910390fd5b60086000815480929190611cce90615596565b91905055506040518060e001604052808481526020013373ffffffffffffffffffffffffffffffffffffffff1681526020016001600086815260200190815260200160002060010160009054906101000a900473ffffffffffffffffffffffffffffffffffffffff1673ffffffffffffffffffffffffffffffffffffffff163373ffffffffffffffffffffffffffffffffffffffff1614611da5576001600086815260200190815260200160002060010160009054906101000a900473ffffffffffffffffffffffffffffffffffffffff16611ddd565b6001600086815260200190815260200160002060070160009054906101000a900473ffffffffffffffffffffffffffffffffffffffff165b73ffffffffffffffffffffffffffffffffffffffff1681526020018381526020016000815260200160008152602001600015158152506002600060085481526020019081526020016000206000820151816000015560208201518160010160006101000a81548173ffffffffffffffffffffffffffffffffffffffff021916908373ffffffffffffffffffffffffffffffffffffffff16021790555060408201518160020160006101000a81548173ffffffffffffffffffffffffffffffffffffffff021916908373ffffffffffffffffffffffffffffffffffffffff1602179055506060820151816003019081611ed5919061578a565b506080820151816004015560a0820151816005015560c08201518160060160006101000a81548160ff02191690831515021790555090505060036001600085815260200190815260200160002060050160006101000a81548160ff02191690836005811115611f4757611f466144c5565b5b0217905550826008547f1954f0ea9e3f5fbdc693320e038db1549f419ae5351b74d36cee7c9ef13dd2b660405160405180910390a3505050565b60085481565b600073ffffffffffffffffffffffffffffffffffffffff166000803373ffffffffffffffffffffffffffffffffffffffff1673ffffffffffffffffffffffffffffffffffffffff16815260200190815260200160002060000160009054906101000a900473ffffffffffffffffffffffffffffffffffffffff1673ffffffffffffffffffffffffffffffffffffffff1614612057576040517f08c379a000000000000000000000000000000000000000000000000000000000815260040161204e90615b19565b60405180910390fd5b6040518061012001604052803373ffffffffffffffffffffffffffffffffffffffff168152602001846001811115612092576120916144c5565b5b815260200183815260200160405180602001604052806000815250815260200182815260200160008152602001600067ffffffffffffffff8111156120da576120d9614651565b5b60405190808252806020026020018201604052801561210d57816020015b60608152602001906001900390816120f85790505b508152602001600067ffffffffffffffff81111561212e5761212d614651565b5b60405190808252806020026020018201604052801561216157816020015b606081526020019060019003908161214c5790505b508152602001600067ffffffffffffffff81111561218257612181614651565b5b6040519080825280602002602001820160405280156121b05781602001602082028036833780820191505090505b508152506000803373ffffffffffffffffffffffffffffffffffffffff1673ffffffffffffffffffffffffffffffffffffffff16815260200190815260200160002060008201518160000160006101000a81548173ffffffffffffffffffffffffffffffffffffffff021916908373ffffffffffffffffffffffffffffffffffffffff16021790555060208201518160000160146101000a81548160ff02191690836001811115612264576122636144c5565b5b0217905550604082015181600101908161227e919061578a565b506060820151816002019081612294919061578a565b5060808201518160030190816122aa919061578a565b5060a0820151816004015560c08201518160050190805190602001906122d1929190614158565b5060e08201518160060190805190602001906122ee929190614158565b5061010082015181600701908051906020019061230c9291906141b1565b509050503373ffffffffffffffffffffffffffffffffffffffff167f8e18574f8a7333e6a87112742a55853a643e2f0550f4e1a3a2c3f1bb2994441d846040516123569190615b39565b60405180910390a2505050565b813373ffffffffffffffffffffffffffffffffffffffff166001600083815260200190815260200160002060010160009054906101000a900473ffffffffffffffffffffffffffffffffffffffff1673ffffffffffffffffffffffffffffffffffffffff1614612408576040517f08c379a00000000000000000000000000000000000000000000000000000000081526004016123ff90615237565b60405180910390fd5b826001600581111561241d5761241c6144c5565b5b6001600083815260200190815260200160002060050160009054906101000a900460ff166005811115612453576124526144c5565b5b14612493576040517f08c379a000000000000000000000000000000000000000000000000000000000815260040161248a906159af565b60405180910390fd5b60026001600086815260200190815260200160002060050160006101000a81548160ff021916908360058111156124cd576124cc6144c5565b5b0217905550600a6000806001600088815260200190815260200160002060010160009054906101000a900473ffffffffffffffffffffffffffffffffffffffff1673ffffffffffffffffffffffffffffffffffffffff1673ffffffffffffffffffffffffffffffffffffffff168152602001908152602001600020600401600082825461255a91906154f6565b92505081905550600a6000806001600088815260200190815260200160002060070160009054906101000a900473ffffffffffffffffffffffffffffffffffffffff1673ffffffffffffffffffffffffffffffffffffffff1673ffffffffffffffffffffffffffffffffffffffff16815260200190815260200160002060040160008282546125e991906154f6565b925050819055506000806001600087815260200190815260200160002060070160009054906101000a900473ffffffffffffffffffffffffffffffffffffffff1673ffffffffffffffffffffffffffffffffffffffff1673ffffffffffffffffffffffffffffffffffffffff168152602001908152602001600020600701839080600181540180825580915050600190039060005260206000200160009091909190915055837ffc534544f8ed1b516bf078b4ae88509d8f81f4fafefb10e9aad53e3e1fbce9bb60405160405180910390a250505050565b60006020528060005260406000206000915090508060000160009054906101000a900473ffffffffffffffffffffffffffffffffffffffff16908060000160149054906101000a900460ff169080600101805461271d906152f2565b80601f0160208091040260200160405190810160405280929190818152602001828054612749906152f2565b80156127965780601f1061276b57610100808354040283529160200191612796565b820191906000526020600020905b81548152906001019060200180831161277957829003601f168201915b5050505050908060020180546127ab906152f2565b80601f01602080910402602001604051908101604052809291908181526020018280546127d7906152f2565b80156128245780601f106127f957610100808354040283529160200191612824565b820191906000526020600020905b81548152906001019060200180831161280757829003601f168201915b505050505090806003018054612839906152f2565b80601f0160208091040260200160405190810160405280929190818152602001828054612865906152f2565b80156128b25780601f10612887576101008083540402835291602001916128b2565b820191906000526020600020905b81548152906001019060200180831161289557829003601f168201915b5050505050908060040154905086565b600660205281600052604060002081815481106128de57600080fd5b90600052602060002001600091509150505481565b60006001600083815260200190815260200160002090506002600581111561291e5761291d6144c5565b5b8160050160009054906101000a900460ff166005811115612942576129416144c5565b5b148061298357506004600581111561295d5761295c6144c5565b5b8160050160009054906101000a900460ff166005811115612981576129806144c5565b5b145b6129c2576040517f08c379a00000000000000000000000000000000000000000000000000000000081526004016129b990615ba0565b60405180910390fd5b600260058111156129d6576129d56144c5565b5b8160050160009054906101000a900460ff1660058111156129fa576129f96144c5565b5b03612aea578060070160009054906101000a900473ffffffffffffffffffffffffffffffffffffffff1673ffffffffffffffffffffffffffffffffffffffff166108fc82600401549081150290604051600060405180830381858888f19350505050158015612a6d573d6000803e3d6000fd5b508060070160009054906101000a900473ffffffffffffffffffffffffffffffffffffffff1673ffffffffffffffffffffffffffffffffffffffff16827f5f553115a120073eb03d935efcbd2b429dea2fed8d5896cc5d326e83fa06fbe08360040154604051612add91906148a2565b60405180910390a3612bd1565b8060010160009054906101000a900473ffffffffffffffffffffffffffffffffffffffff1673ffffffffffffffffffffffffffffffffffffffff166108fc82600401549081150290604051600060405180830381858888f19350505050158015612b58573d6000803e3d6000fd5b508060010160009054906101000a900473ffffffffffffffffffffffffffffffffffffffff1673ffffffffffffffffffffffffffffffffffffffff16827f5f553115a120073eb03d935efcbd2b429dea2fed8d5896cc5d326e83fa06fbe08360040154604051612bc891906148a2565b60405180910390a35b5050565b6002600082815260200190815260200160002060060160009054906101000a900460ff1615612c39576040517f08c379a0000000000000000000000000000000000000000000000000000000008152600401612c30906153db565b60405180910390fd5b6000600260008381526020019081526020016000209050600060016000836000015481526020019081526020016000209050816005015482600401541115612e8e57600180811115612c8e57612c8d6144c5565b5b6000808460010160009054906101000a900473ffffffffffffffffffffffffffffffffffffffff1673ffffffffffffffffffffffffffffffffffffffff1673ffffffffffffffffffffffffffffffffffffffff16815260200190815260200160002060000160149054906101000a900460ff166001811115612d1357612d126144c5565b5b03612d835760048160050160006101000a81548160ff02191690836005811115612d4057612d3f6144c5565b5b0217905550827f5a87909bff68caaaaf0b3fd9c74eeccc928832f879315e5c6fb7a73612f26c0c6001604051612d7691906148cc565b60405180910390a2612e89565b60006001811115612d9757612d966144c5565b5b6000808460010160009054906101000a900473ffffffffffffffffffffffffffffffffffffffff1673ffffffffffffffffffffffffffffffffffffffff1673ffffffffffffffffffffffffffffffffffffffff16815260200190815260200160002060000160149054906101000a900460ff166001811115612e1c57612e1b6144c5565b5b03612e885760028160050160006101000a81548160ff02191690836005811115612e4957612e486144c5565b5b0217905550827f5a87909bff68caaaaf0b3fd9c74eeccc928832f879315e5c6fb7a73612f26c0c6000604051612e7f91906148cc565b60405180910390a25b5b61309d565b600180811115612ea157612ea06144c5565b5b6000808460010160009054906101000a900473ffffffffffffffffffffffffffffffffffffffff1673ffffffffffffffffffffffffffffffffffffffff1673ffffffffffffffffffffffffffffffffffffffff16815260200190815260200160002060000160149054906101000a900460ff166001811115612f2657612f256144c5565b5b03612f965760028160050160006101000a81548160ff02191690836005811115612f5357612f526144c5565b5b0217905550827f5a87909bff68caaaaf0b3fd9c74eeccc928832f879315e5c6fb7a73612f26c0c6001604051612f8991906148cc565b60405180910390a261309c565b60006001811115612faa57612fa96144c5565b5b6000808460010160009054906101000a900473ffffffffffffffffffffffffffffffffffffffff1673ffffffffffffffffffffffffffffffffffffffff1673ffffffffffffffffffffffffffffffffffffffff16815260200190815260200160002060000160149054906101000a900460ff16600181111561302f5761302e6144c5565b5b0361309b5760048160050160006101000a81548160ff0219169083600581111561305c5761305b6144c5565b5b0217905550827f5a87909bff68caaaaf0b3fd9c74eeccc928832f879315e5c6fb7a73612f26c0c600060405161309291906148cc565b60405180910390a25b5b5b60018260060160006101000a81548160ff021916908315150217905550505050565b60606000600560003373ffffffffffffffffffffffffffffffffffffffff1673ffffffffffffffffffffffffffffffffffffffff16815260200190815260200160002090506000805b828054905081101561319b57846005811115613127576131266144c5565b5b6001600085848154811061313e5761313d6158c8565b5b9060005260206000200154815260200190815260200160002060050160009054906101000a900460ff16600581111561317a576131796144c5565b5b0361318e57818061318a90615596565b9250505b8080600101915050613108565b5060008167ffffffffffffffff8111156131b8576131b7614651565b5b6040519080825280602002602001820160405280156131f157816020015b6131de6141fe565b8152602001906001900390816131d65790505b5090506000805b848054905081101561359657866005811115613217576132166144c5565b5b6001600087848154811061322e5761322d6158c8565b5b9060005260206000200154815260200190815260200160002060050160009054906101000a900460ff16600581111561326a576132696144c5565b5b036135895760016000868381548110613286576132856158c8565b5b9060005260206000200154815260200190815260200160002060405180610100016040529081600082015481526020016001820160009054906101000a900473ffffffffffffffffffffffffffffffffffffffff1673ffffffffffffffffffffffffffffffffffffffff1673ffffffffffffffffffffffffffffffffffffffff16815260200160028201805461331b906152f2565b80601f0160208091040260200160405190810160405280929190818152602001828054613347906152f2565b80156133945780601f1061336957610100808354040283529160200191613394565b820191906000526020600020905b81548152906001019060200180831161337757829003601f168201915b505050505081526020016003820180546133ad906152f2565b80601f01602080910402602001604051908101604052809291908181526020018280546133d9906152f2565b80156134265780601f106133fb57610100808354040283529160200191613426565b820191906000526020600020905b81548152906001019060200180831161340957829003601f168201915b50505050508152602001600482015481526020016005820160009054906101000a900460ff16600581111561345e5761345d6144c5565b5b60058111156134705761346f6144c5565b5b8152602001600682018054613484906152f2565b80601f01602080910402602001604051908101604052809291908181526020018280546134b0906152f2565b80156134fd5780601f106134d2576101008083540402835291602001916134fd565b820191906000526020600020905b8154815290600101906020018083116134e057829003601f168201915b505050505081526020016007820160009054906101000a900473ffffffffffffffffffffffffffffffffffffffff1673ffffffffffffffffffffffffffffffffffffffff1673ffffffffffffffffffffffffffffffffffffffff168152505083838151811061356f5761356e6158c8565b5b6020026020010181905250818061358590615596565b9250505b80806001019150506131f8565b5081945050505050919050565b813373ffffffffffffffffffffffffffffffffffffffff166001600083815260200190815260200160002060070160009054906101000a900473ffffffffffffffffffffffffffffffffffffffff1673ffffffffffffffffffffffffffffffffffffffff1614613648576040517f08c379a000000000000000000000000000000000000000000000000000000000815260040161363f90615c32565b60405180910390fd5b826001600581111561365d5761365c6144c5565b5b6001600083815260200190815260200160002060050160009054906101000a900460ff166005811115613693576136926144c5565b5b146136d3576040517f08c379a00000000000000000000000000000000000000000000000000000000081526004016136ca906159af565b60405180910390fd5b60056001600086815260200190815260200160002060050160006101000a81548160ff0219169083600581111561370d5761370c6144c5565b5b021790555082600160008681526020019081526020016000206006019081613735919061578a565b50837f60d8df137e489b6216738e436244ca4700bd6d0c8371d3c8d9c80b54538111b960405160405180910390a250505050565b60608060608060606000606060008073ffffffffffffffffffffffffffffffffffffffff166000803373ffffffffffffffffffffffffffffffffffffffff1673ffffffffffffffffffffffffffffffffffffffff16815260200190815260200160002060000160009054906101000a900473ffffffffffffffffffffffffffffffffffffffff1673ffffffffffffffffffffffffffffffffffffffff1603613846576040517f08c379a000000000000000000000000000000000000000000000000000000000815260040161383d9061536f565b60405180910390fd5b60008060003373ffffffffffffffffffffffffffffffffffffffff1673ffffffffffffffffffffffffffffffffffffffff168152602001908152602001600020905080600101816002018260030183600501846006018560040154866007018760000160149054906101000a900460ff168780546138c3906152f2565b80601f01602080910402602001604051908101604052809291908181526020018280546138ef906152f2565b801561393c5780601f106139115761010080835404028352916020019161393c565b820191906000526020600020905b81548152906001019060200180831161391f57829003601f168201915b5050505050975086805461394f906152f2565b80601f016020809104026020016040519081016040528092919081815260200182805461397b906152f2565b80156139c85780601f1061399d576101008083540402835291602001916139c8565b820191906000526020600020905b8154815290600101906020018083116139ab57829003601f168201915b505050505096508580546139db906152f2565b80601f0160208091040260200160405190810160405280929190818152602001828054613a07906152f2565b8015613a545780601f10613a2957610100808354040283529160200191613a54565b820191906000526020600020905b815481529060010190602001808311613a3757829003601f168201915b5050505050955084805480602002602001604051908101604052809291908181526020016000905b82821015613b28578382906000526020600020018054613a9b906152f2565b80601f0160208091040260200160405190810160405280929190818152602001828054613ac7906152f2565b8015613b145780601f10613ae957610100808354040283529160200191613b14565b820191906000526020600020905b815481529060010190602001808311613af757829003601f168201915b505050505081526020019060010190613a7c565b50505050945083805480602002602001604051908101604052809291908181526020016000905b82821015613bfb578382906000526020600020018054613b6e906152f2565b80601f0160208091040260200160405190810160405280929190818152602001828054613b9a906152f2565b8015613be75780601f10613bbc57610100808354040283529160200191613be7565b820191906000526020600020905b815481529060010190602001808311613bca57829003601f168201915b505050505081526020019060010190613b4f565b50505050935081805480602002602001604051908101604052809291908181526020018280548015613c4c57602002820191906000526020600020905b815481526020019060010190808311613c38575b5050505050915098509850985098509850985098509850509091929394959697565b60075481565b60606000600660003373ffffffffffffffffffffffffffffffffffffffff1673ffffffffffffffffffffffffffffffffffffffff16815260200190815260200160002090506000805b8280549050811015613d5057846005811115613cdc57613cdb6144c5565b5b60016000858481548110613cf357613cf26158c8565b5b9060005260206000200154815260200190815260200160002060050160009054906101000a900460ff166005811115613d2f57613d2e6144c5565b5b03613d43578180613d3f90615596565b9250505b8080600101915050613cbd565b5060008167ffffffffffffffff811115613d6d57613d6c614651565b5b604051908082528060200260200182016040528015613da657816020015b613d936141fe565b815260200190600190039081613d8b5790505b5090506000805b848054905081101561414b57866005811115613dcc57613dcb6144c5565b5b60016000878481548110613de357613de26158c8565b5b9060005260206000200154815260200190815260200160002060050160009054906101000a900460ff166005811115613e1f57613e1e6144c5565b5b0361413e5760016000868381548110613e3b57613e3a6158c8565b5b9060005260206000200154815260200190815260200160002060405180610100016040529081600082015481526020016001820160009054906101000a900473ffffffffffffffffffffffffffffffffffffffff1673ffffffffffffffffffffffffffffffffffffffff1673ffffffffffffffffffffffffffffffffffffffff168152602001600282018054613ed0906152f2565b80601f0160208091040260200160405190810160405280929190818152602001828054613efc906152f2565b8015613f495780601f10613f1e57610100808354040283529160200191613f49565b820191906000526020600020905b815481529060010190602001808311613f2c57829003601f168201915b50505050508152602001600382018054613f62906152f2565b80601f0160208091040260200160405190810160405280929190818152602001828054613f8e906152f2565b8015613fdb5780601f10613fb057610100808354040283529160200191613fdb565b820191906000526020600020905b815481529060010190602001808311613fbe57829003601f168201915b50505050508152602001600482015481526020016005820160009054906101000a900460ff166005811115614013576140126144c5565b5b6005811115614025576140246144c5565b5b8152602001600682018054614039906152f2565b80601f0160208091040260200160405190810160405280929190818152602001828054614065906152f2565b80156140b25780601f10614087576101008083540402835291602001916140b2565b820191906000526020600020905b81548152906001019060200180831161409557829003601f168201915b505050505081526020016007820160009054906101000a900473ffffffffffffffffffffffffffffffffffffffff1673ffffffffffffffffffffffffffffffffffffffff1673ffffffffffffffffffffffffffffffffffffffff1681525050838381518110614124576141236158c8565b5b6020026020010181905250818061413a90615596565b9250505b8080600101915050613dad565b5081945050505050919050565b8280548282559060005260206000209081019282156141a0579160200282015b8281111561419f57825182908161418f919061578a565b5091602001919060010190614178565b5b5090506141ad9190614281565b5090565b8280548282559060005260206000209081019282156141ed579160200282015b828111156141ec5782518255916020019190600101906141d1565b5b5090506141fa91906142a5565b5090565b60405180610100016040528060008152602001600073ffffffffffffffffffffffffffffffffffffffff16815260200160608152602001606081526020016000815260200160006005811115614257576142566144c5565b5b815260200160608152602001600073ffffffffffffffffffffffffffffffffffffffff1681525090565b5b808211156142a1576000818161429891906142c2565b50600101614282565b5090565b5b808211156142be5760008160009055506001016142a6565b5090565b5080546142ce906152f2565b6000825580601f106142e057506142ff565b601f0160209004906000526020600020908101906142fe91906142a5565b5b50565b6000604051905090565b600080fd5b600080fd5b6000819050919050565b61432981614316565b811461433457600080fd5b50565b60008135905061434681614320565b92915050565b600073ffffffffffffffffffffffffffffffffffffffff82169050919050565b60006143778261434c565b9050919050565b6143878161436c565b811461439257600080fd5b50565b6000813590506143a48161437e565b92915050565b600080604083850312156143c1576143c061430c565b5b60006143cf85828601614337565b92505060206143e085828601614395565b9150509250929050565b600060208284031215614400576143ff61430c565b5b600061440e84828501614337565b91505092915050565b61442081614316565b82525050565b61442f8161436c565b82525050565b600081519050919050565b600082825260208201905092915050565b60005b8381101561446f578082015181840152602081019050614454565b60008484015250505050565b6000601f19601f8301169050919050565b600061449782614435565b6144a18185614440565b93506144b1818560208601614451565b6144ba8161447b565b840191505092915050565b7f4e487b7100000000000000000000000000000000000000000000000000000000600052602160045260246000fd5b60068110614505576145046144c5565b5b50565b6000819050614516826144f4565b919050565b600061452682614508565b9050919050565b6145368161451b565b82525050565b600061010082019050614552600083018b614417565b61455f602083018a614426565b8181036040830152614571818961448c565b90508181036060830152614585818861448c565b90506145946080830187614417565b6145a160a083018661452d565b81810360c08301526145b3818561448c565b90506145c260e0830184614426565b9998505050505050505050565b60008115159050919050565b6145e4816145cf565b81146145ef57600080fd5b50565b600081359050614601816145db565b92915050565b6000806040838503121561461e5761461d61430c565b5b600061462c85828601614337565b925050602061463d858286016145f2565b9150509250929050565b600080fd5b600080fd5b7f4e487b7100000000000000000000000000000000000000000000000000000000600052604160045260246000fd5b6146898261447b565b810181811067ffffffffffffffff821117156146a8576146a7614651565b5b80604052505050565b60006146bb614302565b90506146c78282614680565b919050565b600067ffffffffffffffff8211156146e7576146e6614651565b5b6146f08261447b565b9050602081019050919050565b82818337600083830152505050565b600061471f61471a846146cc565b6146b1565b90508281526020810184848401111561473b5761473a61464c565b5b6147468482856146fd565b509392505050565b600082601f83011261476357614762614647565b5b813561477384826020860161470c565b91505092915050565b6000806000606084860312156147955761479461430c565b5b600084013567ffffffffffffffff8111156147b3576147b2614311565b5b6147bf8682870161474e565b935050602084013567ffffffffffffffff8111156147e0576147df614311565b5b6147ec8682870161474e565b92505060406147fd86828701614337565b9150509250925092565b6000806040838503121561481e5761481d61430c565b5b600061482c85828601614337565b925050602061483d85828601614337565b9150509250929050565b600060208201905061485c6000830184614426565b92915050565b600080604083850312156148795761487861430c565b5b600061488785828601614395565b925050602061489885828601614337565b9150509250929050565b60006020820190506148b76000830184614417565b92915050565b6148c6816145cf565b82525050565b60006020820190506148e160008301846148bd565b92915050565b600060e0820190506148fc600083018a614417565b6149096020830189614426565b6149166040830188614426565b8181036060830152614928818761448c565b90506149376080830186614417565b61494460a0830185614417565b61495160c08301846148bd565b98975050505050505050565b600067ffffffffffffffff82111561497857614977614651565b5b602082029050602081019050919050565b600080fd5b60006149a161499c8461495d565b6146b1565b905080838252602082019050602084028301858111156149c4576149c3614989565b5b835b81811015614a0b57803567ffffffffffffffff8111156149e9576149e8614647565b5b8086016149f6898261474e565b855260208501945050506020810190506149c6565b5050509392505050565b600082601f830112614a2a57614a29614647565b5b8135614a3a84826020860161498e565b91505092915050565b600080600080600060a08688031215614a5f57614a5e61430c565b5b600086013567ffffffffffffffff811115614a7d57614a7c614311565b5b614a898882890161474e565b955050602086013567ffffffffffffffff811115614aaa57614aa9614311565b5b614ab68882890161474e565b945050604086013567ffffffffffffffff811115614ad757614ad6614311565b5b614ae38882890161474e565b935050606086013567ffffffffffffffff811115614b0457614b03614311565b5b614b1088828901614a15565b925050608086013567ffffffffffffffff811115614b3157614b30614311565b5b614b3d88828901614a15565b9150509295509295909350565b60008060408385031215614b6157614b6061430c565b5b6000614b6f85828601614337565b925050602083013567ffffffffffffffff811115614b9057614b8f614311565b5b614b9c8582860161474e565b9150509250929050565b60028110614bb357600080fd5b50565b600081359050614bc581614ba6565b92915050565b600080600060608486031215614be457614be361430c565b5b6000614bf286828701614bb6565b935050602084013567ffffffffffffffff811115614c1357614c12614311565b5b614c1f8682870161474e565b925050604084013567ffffffffffffffff811115614c4057614c3f614311565b5b614c4c8682870161474e565b9150509250925092565b600060208284031215614c6c57614c6b61430c565b5b6000614c7a84828501614395565b91505092915050565b60028110614c9457614c936144c5565b5b50565b6000819050614ca582614c83565b919050565b6000614cb582614c97565b9050919050565b614cc581614caa565b82525050565b600060c082019050614ce06000830189614426565b614ced6020830188614cbc565b8181036040830152614cff818761448c565b90508181036060830152614d13818661448c565b90508181036080830152614d27818561448c565b9050614d3660a0830184614417565b979650505050505050565b60068110614d4e57600080fd5b50565b600081359050614d6081614d41565b92915050565b600060208284031215614d7c57614d7b61430c565b5b6000614d8a84828501614d51565b91505092915050565b600081519050919050565b600082825260208201905092915050565b6000819050602082019050919050565b614dc881614316565b82525050565b614dd78161436c565b82525050565b600082825260208201905092915050565b6000614df982614435565b614e038185614ddd565b9350614e13818560208601614451565b614e1c8161447b565b840191505092915050565b614e308161451b565b82525050565b600061010083016000830151614e4f6000860182614dbf565b506020830151614e626020860182614dce565b5060408301518482036040860152614e7a8282614dee565b91505060608301518482036060860152614e948282614dee565b9150506080830151614ea96080860182614dbf565b5060a0830151614ebc60a0860182614e27565b5060c083015184820360c0860152614ed48282614dee565b91505060e0830151614ee960e0860182614dce565b508091505092915050565b6000614f008383614e36565b905092915050565b6000602082019050919050565b6000614f2082614d93565b614f2a8185614d9e565b935083602082028501614f3c85614daf565b8060005b85811015614f785784840389528151614f598582614ef4565b9450614f6483614f08565b925060208a01995050600181019050614f40565b50829750879550505050505092915050565b60006020820190508181036000830152614fa48184614f15565b905092915050565b600081519050919050565b600082825260208201905092915050565b6000819050602082019050919050565b6000614fe48383614dee565b905092915050565b6000602082019050919050565b600061500482614fac565b61500e8185614fb7565b93508360208202850161502085614fc8565b8060005b8581101561505c578484038952815161503d8582614fd8565b945061504883614fec565b925060208a01995050600181019050615024565b50829750879550505050505092915050565b600081519050919050565b600082825260208201905092915050565b6000819050602082019050919050565b60006150a68383614dbf565b60208301905092915050565b6000602082019050919050565b60006150ca8261506e565b6150d48185615079565b93506150df8361508a565b8060005b838110156151105781516150f7888261509a565b9750615102836150b2565b9250506001810190506150e3565b5085935050505092915050565b6000610100820190508181036000830152615138818b61448c565b9050818103602083015261514c818a61448c565b90508181036040830152615160818961448c565b905081810360608301526151748188614ff9565b905081810360808301526151888187614ff9565b905061519760a0830186614417565b81810360c08301526151a981856150bf565b90506151b860e0830184614cbc565b9998505050505050505050565b7f4f6e6c7920636c69656e742063616e20706572666f726d20746869732061637460008201527f696f6e0000000000000000000000000000000000000000000000000000000000602082015250565b6000615221602383614440565b915061522c826151c5565b604082019050919050565b6000602082019050818103600083015261525081615214565b9050919050565b7f50726f6a656374206973206e6f74206163746976650000000000000000000000600082015250565b600061528d601583614440565b915061529882615257565b602082019050919050565b600060208201905081810360008301526152bc81615280565b9050919050565b7f4e487b7100000000000000000000000000000000000000000000000000000000600052602260045260246000fd5b6000600282049050600182168061530a57607f821691505b60208210810361531d5761531c6152c3565b5b50919050565b7f55736572206e6f74207265676973746572656400000000000000000000000000600082015250565b6000615359601383614440565b915061536482615323565b602082019050919050565b600060208201905081810360008301526153888161534c565b9050919050565b7f4469737075746520616c7265616479207265736f6c7665640000000000000000600082015250565b60006153c5601883614440565b91506153d08261538f565b602082019050919050565b600060208201905081810360008301526153f4816153b8565b9050919050565b7f416c726561647920766f74656400000000000000000000000000000000000000600082015250565b6000615431600d83614440565b915061543c826153fb565b602082019050919050565b6000602082019050818103600083015261546081615424565b9050919050565b7f4e487b7100000000000000000000000000000000000000000000000000000000600052601260045260246000fd5b7f4e487b7100000000000000000000000000000000000000000000000000000000600052601160045260246000fd5b60006154d082614316565b91506154db83614316565b9250826154eb576154ea615467565b5b828204905092915050565b600061550182614316565b915061550c83614316565b925082820190508082111561552457615523615496565b5b92915050565b7f4f6e6c7920636c69656e74732063616e206372656174652070726f6a65637473600082015250565b6000615560602083614440565b915061556b8261552a565b602082019050919050565b6000602082019050818103600083015261558f81615553565b9050919050565b60006155a182614316565b91507fffffffffffffffffffffffffffffffffffffffffffffffffffffffffffffffff82036155d3576155d2615496565b5b600182019050919050565b60008190508160005260206000209050919050565b60006020601f8301049050919050565b600082821b905092915050565b6000600883026156407fffffffffffffffffffffffffffffffffffffffffffffffffffffffffffffffff82615603565b61564a8683615603565b95508019841693508086168417925050509392505050565b6000819050919050565b600061568761568261567d84614316565b615662565b614316565b9050919050565b6000819050919050565b6156a18361566c565b6156b56156ad8261568e565b848454615610565b825550505050565b600090565b6156ca6156bd565b6156d5818484615698565b505050565b5b818110156156f9576156ee6000826156c2565b6001810190506156db565b5050565b601f82111561573e5761570f816155de565b615718846155f3565b81016020851015615727578190505b61573b615733856155f3565b8301826156da565b50505b505050565b600082821c905092915050565b600061576160001984600802615743565b1980831691505092915050565b600061577a8383615750565b9150826002028217905092915050565b61579382614435565b67ffffffffffffffff8111156157ac576157ab614651565b5b6157b682546152f2565b6157c18282856156fd565b600060209050601f8311600181146157f457600084156157e2578287015190505b6157ec858261576e565b865550615854565b601f198416615802866155de565b60005b8281101561582a57848901518255600182019150602085019450602081019050615805565b868310156158475784890151615843601f891682615750565b8355505b6001600288020188555050505b505050505050565b7f4f6e6c7920667265656c616e636572732063616e206170706c79000000000000600082015250565b6000615892601a83614440565b915061589d8261585c565b602082019050919050565b600060208201905081810360008301526158c181615885565b9050919050565b7f4e487b7100000000000000000000000000000000000000000000000000000000600052603260045260246000fd5b7f467265656c616e63657220616c7265616479206170706c696564000000000000600082015250565b600061592d601a83614440565b9150615938826158f7565b602082019050919050565b6000602082019050818103600083015261595c81615920565b9050919050565b7f50726f6a656374206973206e6f74206f6e676f696e6700000000000000000000600082015250565b6000615999601683614440565b91506159a482615963565b602082019050919050565b600060208201905081810360008301526159c88161598c565b9050919050565b7f496e636f727265637420616d6f756e742073656e740000000000000000000000600082015250565b6000615a05601583614440565b9150615a10826159cf565b602082019050919050565b60006020820190508181036000830152615a34816159f8565b9050919050565b7f4f6e6c7920636c69656e74206f7220667265656c616e6365722063616e20726160008201527f6973652064697370757465000000000000000000000000000000000000000000602082015250565b6000615a97602b83614440565b9150615aa282615a3b565b604082019050919050565b60006020820190508181036000830152615ac681615a8a565b9050919050565b7f5573657220616c72656164792072656769737465726564000000000000000000600082015250565b6000615b03601783614440565b9150615b0e82615acd565b602082019050919050565b60006020820190508181036000830152615b3281615af6565b9050919050565b6000602082019050615b4e6000830184614cbc565b92915050565b7f50726f6a656374206e6f7420696e2066696e616c207374617465000000000000600082015250565b6000615b8a601a83614440565b9150615b9582615b54565b602082019050919050565b60006020820190508181036000830152615bb981615b7d565b9050919050565b7f4f6e6c7920667265656c616e6365722063616e20706572666f726d207468697360008201527f20616374696f6e00000000000000000000000000000000000000000000000000602082015250565b6000615c1c602783614440565b9150615c2782615bc0565b604082019050919050565b60006020820190508181036000830152615c4b81615c0f565b905091905056fea26469706673582212202dc0d83919a53db2b1a8f6007c0dd2e3e092a724e4563d712a68b815f4eb33a964736f6c634300081c0033",
  "linkReferences": {},
  "deployedLinkReferences": {}
}